20210813-01:22:02.671089000 : 8=FIX.4.2|9=233|35=D|34=487|49=SenderCompID|52=20210813-01:22:02.671|56=TargetCompID|1=CICC2|11=130000000000_HAS092201410319e0|15=CNY|21=1|22=5|38=32100|40=2|44=35.3000|48=600004.SS|50=CICC2|54=1|55=600141.SS|57=SWAP|59=0|60=20210813-01:22:02|100=SS|120=USD|207=SS|10=191|
20210813-01:22:02.675396000 : 8=FIX.4.2|9=233|35=D|34=488|49=SenderCompID|52=20210813-01:22:02.675|56=TargetCompID|1=CICC2|11=130000000000_HAS092201400460e0|15=CNY|21=1|22=5|38=10600|40=2|44=22.9600|48=603115.SS|50=CICC2|54=1|55=603115.SS|57=SWAP|59=0|60=20210813-01:22:02|100=SS|120=USD|207=SS|10=206|
20210813-01:22:05.638127000 : 8=FIX.4.2|9=233|35=D|34=489|49=SenderCompID|52=20210813-01:22:05.638|56=TargetCompID|1=CICC2|11=130000000000_HAS092201405597e0|15=CNY|21=1|22=5|38=32100|40=2|44=35.3000|48=600141.SS|50=CICC2|54=1|55=600141.SS|57=SWAP|59=0|60=20210813-01:22:05|100=SS|120=USD|207=SS|10=214|
20210813-01:22:05.639435000 : 8=FIX.4.2|9=232|35=D|34=490|49=SenderCompID|52=20210813-01:22:05.639|56=TargetCompID|1=CICC2|11=130000000000_HAS092201390754e0|15=CNY|21=1|22=5|38=1600|40=2|44=22.9600|48=603115.SS|50=CICC2|54=1|55=603115.SS|57=SWAP|59=0|60=20210813-01:22:05|100=SS|120=USD|207=SS|10=170|
20210813-01:22:06.111464000 : 8=FIX.4.2|9=233|35=D|34=491|49=SenderCompID|52=20210813-01:22:06.111|56=TargetCompID|1=CICC2|11=130000000000_HAS092201395248e0|15=CNY|21=1|22=5|38=32100|40=2|44=35.3000|48=600141.SS|50=CICC2|54=1|55=600141.SS|57=SWAP|59=0|60=20210813-01:22:06|100=SS|120=USD|207=SS|10=196|
20210813-01:22:08.619648000 : 8=FIX.4.2|9=233|35=D|34=492|49=SenderCompID|52=20210813-01:22:08.619|56=TargetCompID|1=CICC2|11=130000000000_HAS092201410322e0|15=CNY|21=1|22=5|38=32100|40=2|44=35.3000|48=600141.SS|50=CICC2|54=1|55=600141.SS|57=SWAP|59=0|60=20210813-01:22:08|100=SS|120=USD|207=SS|10=195|
20210813-01:22:08.625457000 : 8=FIX.4.2|9=231|35=D|34=493|49=SenderCompID|52=20210813-01:22:08.625|56=TargetCompID|1=CICC2|11=130000000000_HAS092201415345e0|15=CNY|21=1|22=5|38=200|40=2|44=22.9600|48=603115.SS|50=CICC2|54=1|55=603115.SS|57=SWAP|59=0|60=20210813-01:22:08|100=SS|120=USD|207=SS|10=114|
20210813-01:22:17.638759000 : 8=FIX.4.2|9=233|35=D|34=494|49=SenderCompID|52=20210813-01:22:17.638|56=TargetCompID|1=CICC2|11=130000000000_HAS092201415346e0|15=CNY|21=1|22=5|38=32100|40=2|44=35.3000|48=600141.SS|50=CICC2|54=1|55=600141.SS|57=SWAP|59=0|60=20210813-01:22:17|100=SS|120=USD|207=SS|10=209|
20210813-01:22:19.565224000 : 8=FIX.4.2|9=231|35=D|34=495|49=SenderCompID|52=20210813-01:22:19.565|56=TargetCompID|1=CICC2|11=130000000000_HAS092201390759e0|15=CNY|21=1|22=5|38=300|40=2|44=105.1100|48=688800.SS|50=CICC2|54=1|55=688800.SS|57=SWAP|59=0|60=20210813-01:22:19|100=SS|120=USD|207=SS|10=184|
20210813-01:22:20.640711000 : 8=FIX.4.2|9=233|35=D|34=496|49=SenderCompID|52=20210813-01:22:20.640|56=TargetCompID|1=CICC2|11=130000000000_HAS092201415348e0|15=CNY|21=1|22=5|38=32100|40=2|44=35.3000|48=600141.SS|50=CICC2|54=1|55=600141.SS|57=SWAP|59=0|60=20210813-01:22:20|100=SS|120=USD|207=SS|10=194|
20210813-01:22:21.108111000 : 8=FIX.4.2|9=233|35=D|34=497|49=SenderCompID|52=20210813-01:22:21.108|56=TargetCompID|1=CICC2|11=130000000000_HAS092201390760e0|15=CNY|21=1|22=5|38=32100|40=2|44=35.3000|48=600141.SS|50=CICC2|54=1|55=600141.SS|57=SWAP|59=0|60=20210813-01:22:21|100=SS|120=USD|207=SS|10=196|
20210813-01:22:23.611346000 : 8=FIX.4.2|9=233|35=D|34=498|49=SenderCompID|52=20210813-01:22:23.611|56=TargetCompID|1=CICC2|11=130000000000_HAS092201405603e0|15=CNY|21=1|22=5|38=32100|40=2|44=35.3000|48=600141.SS|50=CICC2|54=1|55=600141.SS|57=SWAP|59=0|60=20210813-01:22:23|100=SS|120=USD|207=SS|10=193|
20210813-01:23:11.744875000 : 8=FIX.4.2|9=231|35=D|34=503|49=SenderCompID|52=20210813-01:23:11.744|56=TargetCompID|1=CICC2|11=130000000000_HAS092301415356e0|15=CNY|21=1|22=5|38=900|40=2|44=22.9600|48=603115.SS|50=CICC2|54=1|55=603115.SS|57=SWAP|59=0|60=20210813-01:23:11|100=SS|120=USD|207=SS|10=108|
20210813-01:23:14.730386000 : 8=FIX.4.2|9=231|35=D|34=504|49=SenderCompID|52=20210813-01:23:14.730|56=TargetCompID|1=CICC2|11=130000000000_HAS092301395254e0|15=CNY|21=1|22=5|38=400|40=2|44=22.9600|48=603115.SS|50=CICC2|54=1|55=603115.SS|57=SWAP|59=0|60=20210813-01:23:14|100=SS|120=USD|207=SS|10=109|
20210813-01:23:17.727887000 : 8=FIX.4.2|9=231|35=D|34=505|49=SenderCompID|52=20210813-01:23:17.727|56=TargetCompID|1=CICC2|11=130000000000_HAS092301385285e0|15=CNY|21=1|22=5|38=700|40=2|44=22.9600|48=603115.SS|50=CICC2|54=1|55=603115.SS|57=SWAP|59=0|60=20210813-01:23:17|100=SS|120=USD|207=SS|10=128|
20210813-01:23:20.127919000 : 8=FIX.4.2|9=233|35=D|34=506|49=SenderCompID|52=20210813-01:23:20.127|56=TargetCompID|1=CICC2|11=130000000000_SAS092301395255e0|15=CNY|21=1|22=5|38=20000|40=2|44=36.5500|48=000831.SZ|50=CICC2|54=1|55=000831.SZ|57=SWAP|59=0|60=20210813-01:23:20|100=SZ|120=USD|207=SZ|10=244|
20210813-01:23:20.718773000 : 8=FIX.4.2|9=231|35=D|34=507|49=SenderCompID|52=20210813-01:23:20.718|56=TargetCompID|1=CICC2|11=130000000000_HAS092301415359e0|15=CNY|21=1|22=5|38=300|40=2|44=22.9600|48=603115.SS|50=CICC2|54=1|55=603115.SS|57=SWAP|59=0|60=20210813-01:23:20|100=SS|120=USD|207=SS|10=110|
20210813-01:23:23.981587000 : 8=FIX.4.2|9=232|35=D|34=508|49=SenderCompID|52=20210813-01:23:23.981|56=TargetCompID|1=CICC2|11=130000000000_SAS092301405612e0|15=CNY|21=1|22=5|38=57300|40=2|44=62.1500|48=300450.SZ|50=CICC2|54=1|55=300450.SZ|57=SWAP|59=0|60=20210813-01:23:23|100=SZ|120=USD|207=SZ|10=206|
20210813-01:23:30.735158000 : 8=FIX.4.2|9=232|35=D|34=509|49=SenderCompID|52=20210813-01:23:30.735|56=TargetCompID|1=CICC2|11=130000000000_SAS092301395258e0|15=CNY|21=1|22=5|38=58100|40=2|44=62.1500|48=300450.SZ|50=CICC2|54=1|55=300450.SZ|57=SWAP|59=0|60=20210813-01:23:30|100=SZ|120=USD|207=SZ|10=213|
20210813-01:23:31.894556000 : 8=FIX.4.2|9=231|35=D|34=510|49=SenderCompID|52=20210813-01:23:31.894|56=TargetCompID|1=CICC2|11=130000000000_HAS092301390771e0|15=CNY|21=1|22=5|38=286|40=2|44=105.1100|48=688800.SS|50=CICC2|54=1|55=688800.SS|57=SWAP|59=0|60=20210813-01:23:31|100=SS|120=USD|207=SS|10=175|
20210813-01:23:32.682965000 : 8=FIX.4.2|9=231|35=D|34=511|49=SenderCompID|52=20210813-01:23:32.682|56=TargetCompID|1=CICC2|11=130000000000_HAS092301415361e0|15=CNY|21=1|22=5|38=200|40=2|44=22.9600|48=603115.SS|50=CICC2|54=1|55=603115.SS|57=SWAP|59=0|60=20210813-01:23:32|100=SS|120=USD|207=SS|10=103|
20210813-01:23:38.665422000 : 8=FIX.4.2|9=231|35=D|34=512|49=SenderCompID|52=20210813-01:23:38.665|56=TargetCompID|1=CICC2|11=130000000000_HAS092301405618e0|15=CNY|21=1|22=5|38=800|40=2|44=22.9600|48=603115.SS|50=CICC2|54=1|55=603115.SS|57=SWAP|59=0|60=20210813-01:23:38|100=SS|120=USD|207=SS|10=127|
20210813-01:23:38.945234000 : 8=FIX.4.2|9=232|35=D|34=513|49=SenderCompID|52=20210813-01:23:38.945|56=TargetCompID|1=CICC2|11=130000000000_SAS092301390777e0|15=CNY|21=1|22=5|38=58100|40=2|44=62.1500|48=300450.SZ|50=CICC2|54=1|55=300450.SZ|57=SWAP|59=0|60=20210813-01:23:38|100=SZ|120=USD|207=SZ|10=228|
20210813-01:23:39.742599000 : 8=FIX.4.2|9=232|35=D|34=514|49=SenderCompID|52=20210813-01:23:39.742|56=TargetCompID|1=CICC2|11=130000000000_SAS092301405619e0|15=CNY|21=1|22=5|38=59800|40=2|44=62.1500|48=300450.SZ|50=CICC2|54=1|55=300450.SZ|57=SWAP|59=0|60=20210813-01:23:39|100=SZ|120=USD|207=SZ|10=226|
20210813-01:23:45.500825000 : 8=FIX.4.2|9=233|35=D|34=515|49=SenderCompID|52=20210813-01:23:45.500|56=TargetCompID|1=CICC2|11=130000000000_HAS092301405621e0|15=CNY|21=1|22=5|38=22700|40=2|44=31.7700|48=600338.SS|50=CICC2|54=1|55=600338.SS|57=SWAP|59=0|60=20210813-01:23:45|100=SS|120=USD|207=SS|10=230|
20210813-01:23:47.647968000 : 8=FIX.4.2|9=231|35=D|34=516|49=SenderCompID|52=20210813-01:23:47.647|56=TargetCompID|1=CICC2|11=130000000000_HAS092301390779e0|15=CNY|21=1|22=5|38=400|40=2|44=22.9600|48=603115.SS|50=CICC2|54=1|55=603115.SS|57=SWAP|59=0|60=20210813-01:23:47|100=SS|120=USD|207=SS|10=138|
20210813-01:23:48.737764000 : 8=FIX.4.2|9=232|35=D|34=517|49=SenderCompID|52=20210813-01:23:48.737|56=TargetCompID|1=CICC2|11=130000000000_SAS092301395261e0|15=CNY|21=1|22=5|38=59800|40=2|44=62.1500|48=300450.SZ|50=CICC2|54=1|55=300450.SZ|57=SWAP|59=0|60=20210813-01:23:48|100=SZ|120=USD|207=SZ|10=234|
20210813-01:23:50.611679000 : 8=FIX.4.2|9=232|35=D|34=518|49=SenderCompID|52=20210813-01:23:50.611|56=TargetCompID|1=CICC2|11=130000000000_HAS092301415367e0|15=CNY|21=1|22=5|38=1600|40=2|44=22.9600|48=603115.SS|50=CICC2|54=1|55=603115.SS|57=SWAP|59=0|60=20210813-01:23:50|100=SS|120=USD|207=SS|10=162|
20210813-01:23:53.943077000 : 8=FIX.4.2|9=232|35=D|34=519|49=SenderCompID|52=20210813-01:23:53.943|56=TargetCompID|1=CICC2|11=130000000000_SAS092301390782e0|15=CNY|21=1|22=5|38=59800|40=2|44=62.1500|48=300450.SZ|50=CICC2|54=1|55=300450.SZ|57=SWAP|59=0|60=20210813-01:23:53|100=SZ|120=USD|207=SZ|10=230|
20210813-01:23:56.603954000 : 8=FIX.4.2|9=231|35=D|34=520|49=SenderCompID|52=20210813-01:23:56.603|56=TargetCompID|1=CICC2|11=130000000000_HAS092301410331e0|15=CNY|21=1|22=5|38=200|40=2|44=22.9600|48=603115.SS|50=CICC2|54=1|55=603115.SS|57=SWAP|59=0|60=20210813-01:23:56|100=SS|120=USD|207=SS|10=100|
20210813-01:23:57.729865000 : 8=FIX.4.2|9=232|35=D|34=521|49=SenderCompID|52=20210813-01:23:57.729|56=TargetCompID|1=CICC2|11=130000000000_SAS092301410332e0|15=CNY|21=1|22=5|38=59800|40=2|44=62.1500|48=300450.SZ|50=CICC2|54=1|55=300450.SZ|57=SWAP|59=0|60=20210813-01:23:57|100=SZ|120=USD|207=SZ|10=217|
20210813-01:23:59.606399000 : 8=FIX.4.2|9=231|35=D|34=522|49=SenderCompID|52=20210813-01:23:59.606|56=TargetCompID|1=CICC2|11=130000000000_HAS092301400479e0|15=CNY|21=1|22=5|38=500|40=2|44=22.9600|48=603115.SS|50=CICC2|54=1|55=603115.SS|57=SWAP|59=0|60=20210813-01:23:59|100=SS|120=USD|207=SS|10=126|
20210813-01:24:05.888788000 : 8=FIX.4.2|9=231|35=D|34=523|49=SenderCompID|52=20210813-01:24:05.888|56=TargetCompID|1=CICC2|11=130000000000_HAS092401415370e0|15=CNY|21=1|22=5|38=300|40=2|44=22.9600|48=603115.SS|50=CICC2|54=1|55=603115.SS|57=SWAP|59=0|60=20210813-01:24:05|100=SS|120=USD|207=SS|10=118|
20210813-01:24:06.746501000 : 8=FIX.4.2|9=232|35=D|34=524|49=SenderCompID|52=20210813-01:24:06.746|56=TargetCompID|1=CICC2|11=130000000000_SAS092401395268e0|15=CNY|21=1|22=5|38=59800|40=2|44=62.1500|48=300450.SZ|50=CICC2|54=1|55=300450.SZ|57=SWAP|59=0|60=20210813-01:24:06|100=SZ|120=USD|207=SZ|10=230|
20210813-01:24:08.578882000 : 8=FIX.4.2|9=231|35=D|34=525|49=SenderCompID|52=20210813-01:24:08.578|56=TargetCompID|1=CICC2|11=130000000000_HAS092401385300e0|15=CNY|21=1|22=5|38=200|40=2|44=22.9600|48=603115.SS|50=CICC2|54=1|55=603115.SS|57=SWAP|59=0|60=20210813-01:24:08|100=SS|120=USD|207=SS|10=120|
20210813-01:24:08.946485000 : 8=FIX.4.2|9=232|35=D|34=526|49=SenderCompID|52=20210813-01:24:08.946|56=TargetCompID|1=CICC2|11=130000000000_SAS092401395270e0|15=CNY|21=1|22=5|38=59800|40=2|44=62.1500|48=300450.SZ|50=CICC2|54=1|55=300450.SZ|57=SWAP|59=0|60=20210813-01:24:08|100=SZ|120=USD|207=SZ|10=231|
20210813-01:24:11.807183000 : 8=FIX.4.2|9=231|35=D|34=527|49=SenderCompID|52=20210813-01:24:11.807|56=TargetCompID|1=CICC2|11=130000000000_HAS092401390788e0|15=CNY|21=1|22=5|38=700|40=2|44=22.9600|48=603115.SS|50=CICC2|54=1|55=603115.SS|57=SWAP|59=0|60=20210813-01:24:11|100=SS|120=USD|207=SS|10=126|
20210813-01:24:15.762299000 : 8=FIX.4.2|9=232|35=D|34=528|49=SenderCompID|52=20210813-01:24:15.762|56=TargetCompID|1=CICC2|11=130000000000_SAS092401400485e0|15=CNY|21=1|22=5|38=59800|40=2|44=62.1500|48=300450.SZ|50=CICC2|54=1|55=300450.SZ|57=SWAP|59=0|60=20210813-01:24:15|100=SZ|120=USD|207=SZ|10=220|
20210813-01:24:16.762002000 : 8=FIX.4.2|9=231|35=D|34=529|49=SenderCompID|52=20210813-01:24:16.761|56=TargetCompID|1=CICC2|11=130000000000_HAS092401400487e0|15=CNY|21=1|22=5|38=279|40=2|44=105.1100|48=688800.SS|50=CICC2|54=1|55=688800.SS|57=SWAP|59=0|60=20210813-01:24:16|100=SS|120=USD|207=SS|10=185|
20210813-01:24:20.587464000 : 8=FIX.4.2|9=231|35=D|34=530|49=SenderCompID|52=20210813-01:24:20.587|56=TargetCompID|1=CICC2|11=130000000000_HAS092401400489e0|15=CNY|21=1|22=5|38=900|40=2|44=22.9600|48=603115.SS|50=CICC2|54=1|55=603115.SS|57=SWAP|59=0|60=20210813-01:24:20|100=SS|120=USD|207=SS|10=117|
20210813-01:24:23.590248000 : 8=FIX.4.2|9=231|35=D|34=531|49=SenderCompID|52=20210813-01:24:23.590|56=TargetCompID|1=CICC2|11=130000000000_HAS092401395273e0|15=CNY|21=1|22=5|38=300|40=2|44=22.9600|48=603115.SS|50=CICC2|54=1|55=603115.SS|57=SWAP|59=0|60=20210813-01:24:23|100=SS|120=USD|207=SS|10=116|
20210813-01:24:23.942506000 : 8=FIX.4.2|9=232|35=D|34=532|49=SenderCompID|52=20210813-01:24:23.942|56=TargetCompID|1=CICC2|11=130000000000_SAS092401415373e0|15=CNY|21=1|22=5|38=59800|40=2|44=62.1500|48=300450.SZ|50=CICC2|54=1|55=300450.SZ|57=SWAP|59=0|60=20210813-01:24:23|100=SZ|120=USD|207=SZ|10=215|
20210813-01:24:24.730344000 : 8=FIX.4.2|9=232|35=D|34=533|49=SenderCompID|52=20210813-01:24:24.730|56=TargetCompID|1=CICC2|11=130000000000_SAS092401400490e0|15=CNY|21=1|22=5|38=59800|40=2|44=62.1500|48=300450.SZ|50=CICC2|54=1|55=300450.SZ|57=SWAP|59=0|60=20210813-01:24:24|100=SZ|120=USD|207=SZ|10=207|
20210813-01:24:26.806047000 : 8=FIX.4.2|9=231|35=D|34=534|49=SenderCompID|52=20210813-01:24:26.805|56=TargetCompID|1=CICC2|11=130000000000_HAS092401410338e0|15=CNY|21=1|22=5|38=900|40=2|44=22.9600|48=603115.SS|50=CICC2|54=1|55=603115.SS|57=SWAP|59=0|60=20210813-01:24:26|100=SS|120=USD|207=SS|10=120|
20210813-01:24:32.781125000 : 8=FIX.4.2|9=231|35=D|34=535|49=SenderCompID|52=20210813-01:24:32.781|56=TargetCompID|1=CICC2|11=130000000000_HAS092401400494e0|15=CNY|21=1|22=5|38=700|40=2|44=22.9600|48=603115.SS|50=CICC2|54=1|55=603115.SS|57=SWAP|59=0|60=20210813-01:24:32|100=SS|120=USD|207=SS|10=118|
20210813-01:24:33.743507000 : 8=FIX.4.2|9=233|35=D|34=536|49=SenderCompID|52=20210813-01:24:33.743|56=TargetCompID|1=CICC2|11=130000000000_SAS092401385307e0|15=CNY|21=1|22=5|38=59800|40=2|44=62.1500|48=300450.SZ|50=CICC2|54=1|55=300450.SZ|57=SWAP|59=0|60=20210813-01:24:33|100=SZ|120=USD|207=SZ|10=015|
20210813-01:24:35.775632000 : 8=FIX.4.2|9=231|35=D|34=537|49=SenderCompID|52=20210813-01:24:35.775|56=TargetCompID|1=CICC2|11=130000000000_HAS092401395275e0|15=CNY|21=1|22=5|38=300|40=2|44=22.9600|48=603115.SS|50=CICC2|54=1|55=603115.SS|57=SWAP|59=0|60=20210813-01:24:35|100=SS|120=USD|207=SS|10=135|
20210813-01:24:38.806201000 : 8=FIX.4.2|9=231|35=D|34=538|49=SenderCompID|52=20210813-01:24:38.806|56=TargetCompID|1=CICC2|11=130000000000_HAS092401395276e0|15=CNY|21=1|22=5|38=200|40=2|44=22.9600|48=603115.SS|50=CICC2|54=1|55=603115.SS|57=SWAP|59=0|60=20210813-01:24:38|100=SS|120=USD|207=SS|10=137|
20210813-01:24:41.790110000 : 8=FIX.4.2|9=232|35=D|34=539|49=SenderCompID|52=20210813-01:24:41.790|56=TargetCompID|1=CICC2|11=130000000000_HAS092401385310e0|15=CNY|21=1|22=5|38=2600|40=2|44=22.9600|48=603115.SS|50=CICC2|54=1|55=603115.SS|57=SWAP|59=0|60=20210813-01:24:41|100=SS|120=USD|207=SS|10=171|
20210813-01:24:47.746339000 : 8=FIX.4.2|9=231|35=D|34=540|49=SenderCompID|52=20210813-01:24:47.746|56=TargetCompID|1=CICC2|11=130000000000_HAS092401415380e0|15=CNY|21=1|22=5|38=400|40=2|44=22.9600|48=603115.SS|50=CICC2|54=1|55=603115.SS|57=SWAP|59=0|60=20210813-01:24:47|100=SS|120=USD|207=SS|10=124|
20210813-01:24:50.717553000 : 8=FIX.4.2|9=231|35=D|34=541|49=SenderCompID|52=20210813-01:24:50.717|56=TargetCompID|1=CICC2|11=130000000000_HAS092401410344e0|15=CNY|21=1|22=5|38=300|40=2|44=22.9600|48=603115.SS|50=CICC2|54=1|55=603115.SS|57=SWAP|59=0|60=20210813-01:24:50|100=SS|120=USD|207=SS|10=105|
20210813-01:24:52.989307000 : 8=FIX.4.2|9=231|35=D|34=542|49=SenderCompID|52=20210813-01:24:52.989|56=TargetCompID|1=CICC2|11=130000000000_HAS092401400500e0|15=CNY|21=1|22=5|38=253|40=2|44=105.1100|48=688800.SS|50=CICC2|54=1|55=688800.SS|57=SWAP|59=0|60=20210813-01:24:52|100=SS|120=USD|207=SS|10=170|
20210813-01:24:53.730845000 : 8=FIX.4.2|9=231|35=D|34=543|49=SenderCompID|52=20210813-01:24:53.730|56=TargetCompID|1=CICC2|11=130000000000_HAS092401405638e0|15=CNY|21=1|22=5|38=300|40=2|44=22.9600|48=603115.SS|50=CICC2|54=1|55=603115.SS|57=SWAP|59=0|60=20210813-01:24:53|100=SS|120=USD|207=SS|10=118|
20210813-01:24:56.780307000 : 8=FIX.4.2|9=231|35=D|34=544|49=SenderCompID|52=20210813-01:24:56.780|56=TargetCompID|1=CICC2|11=130000000000_HAS092401415451e0|15=CNY|21=1|22=5|38=800|40=2|44=22.9600|48=603115.SS|50=CICC2|54=1|55=603115.SS|57=SWAP|59=0|60=20210813-01:24:56|100=SS|120=USD|207=SS|10=129|
20210813-01:30:02.195469000 : 8=FIX.4.2|9=231|35=D|34=576|49=SenderCompID|52=20210813-01:30:02.195|56=TargetCompID|1=CICC2|11=130000000000_SAS093001392585e0|15=CNY|21=1|22=5|38=100|40=2|44=12.5400|48=000811.SZ|50=CICC2|54=1|55=000811.SZ|57=SWAP|59=0|60=20210813-01:30:02|100=SZ|120=USD|207=SZ|10=138|
20210813-01:30:02.363993000 : 8=FIX.4.2|9=231|35=D|34=577|49=SenderCompID|52=20210813-01:30:02.363|56=TargetCompID|1=CICC2|11=130000000000_SAS093001392610e0|15=CNY|21=1|22=5|38=100|40=2|44=36.5500|48=000831.SZ|50=CICC2|54=1|55=000831.SZ|57=SWAP|59=0|60=20210813-01:30:02|100=SZ|120=USD|207=SZ|10=142|
20210813-01:30:02.370730000 : 8=FIX.4.2|9=231|35=D|34=578|49=SenderCompID|52=20210813-01:30:02.370|56=TargetCompID|1=CICC2|11=130000000000_HAS093001385889e0|15=CNY|21=1|22=5|38=100|40=2|44=31.7700|48=600338.SS|50=CICC2|54=1|55=600338.SS|57=SWAP|59=0|60=20210813-01:30:02|100=SS|120=USD|207=SS|10=127|
20210813-01:30:02.383262000 : 8=FIX.4.2|9=230|35=D|34=579|49=SenderCompID|52=20210813-01:30:02.383|56=TargetCompID|1=CICC2|11=130000000000_SAS093001415957e0|15=CNY|21=1|22=5|38=100|40=2|44=15.0600|48=002213.SZ|50=CICC2|54=1|55=002213.SZ|57=SWAP|59=0|60=20210813-01:30:02|100=SZ|120=USD|207=SZ|10=085|
20210813-01:30:03.787320000 : 8=FIX.4.2|9=231|35=D|34=580|49=SenderCompID|52=20210813-01:30:03.787|56=TargetCompID|1=CICC2|11=130000000000_SAS093001415994e0|15=CNY|21=1|22=5|38=100|40=2|44=13.9300|48=000066.SZ|50=CICC2|54=2|55=000066.SZ|57=SWAP|59=0|60=20210813-01:30:03|100=SZ|120=USD|207=SZ|10=154|
20210813-01:30:03.861875000 : 8=FIX.4.2|9=233|35=D|34=581|49=SenderCompID|52=20210813-01:30:03.861|56=TargetCompID|1=CICC2|11=130000000000_SAS093001406259e0|15=CNY|21=1|22=5|38=20000|40=2|44=12.5400|48=000811.SZ|50=CICC2|54=1|55=000811.SZ|57=SWAP|59=0|60=20210813-01:30:03|100=SZ|120=USD|207=SZ|10=232|
20210813-01:30:03.884935000 : 8=FIX.4.2|9=233|35=D|34=582|49=SenderCompID|52=20210813-01:30:03.884|56=TargetCompID|1=CICC2|11=130000000000_SAS093001416000e0|15=CNY|21=1|22=5|38=20000|40=2|44=36.5500|48=000831.SZ|50=CICC2|54=1|55=000831.SZ|57=SWAP|59=0|60=20210813-01:30:03|100=SZ|120=USD|207=SZ|10=232|
20210813-01:30:03.982581000 : 8=FIX.4.2|9=232|35=D|34=583|49=SenderCompID|52=20210813-01:30:03.982|56=TargetCompID|1=CICC2|11=130000000000_SAS093001410999e0|15=CNY|21=1|22=5|38=3200|40=2|44=15.0600|48=002213.SZ|50=CICC2|54=1|55=002213.SZ|57=SWAP|59=0|60=20210813-01:30:03|100=SZ|120=USD|207=SZ|10=197|
20210813-01:30:04.515251000 : 8=FIX.4.2|9=231|35=D|34=584|49=SenderCompID|52=20210813-01:30:04.515|56=TargetCompID|1=CICC2|11=130000000000_SAS093001411042e0|15=CNY|21=1|22=5|38=100|40=2|44=17.6500|48=300340.SZ|50=CICC2|54=1|55=300340.SZ|57=SWAP|59=0|60=20210813-01:30:04|100=SZ|120=USD|207=SZ|10=125|
20210813-01:30:04.659180000 : 8=FIX.4.2|9=231|35=D|34=585|49=SenderCompID|52=20210813-01:30:04.659|56=TargetCompID|1=CICC2|11=130000000000_SAS093001385998e0|15=CNY|21=1|22=5|38=100|40=2|44=62.1500|48=300450.SZ|50=CICC2|54=1|55=300450.SZ|57=SWAP|59=0|60=20210813-01:30:04|100=SZ|120=USD|207=SZ|10=167|
20210813-01:30:04.690143000 : 8=FIX.4.2|9=231|35=D|34=586|49=SenderCompID|52=20210813-01:30:04.690|56=TargetCompID|1=CICC2|11=130000000000_SAS093001416066e0|15=CNY|21=1|22=5|38=100|40=2|44=19.0600|48=300501.SZ|50=CICC2|54=2|55=300501.SZ|57=SWAP|59=0|60=20210813-01:30:04|100=SZ|120=USD|207=SZ|10=135|
20210813-01:30:05.174214000 : 8=FIX.4.2|9=233|35=D|34=587|49=SenderCompID|52=20210813-01:30:05.174|56=TargetCompID|1=CICC2|11=130000000000_HAS093001401396e0|15=CNY|21=1|22=5|38=18900|40=2|44=31.7700|48=600338.SS|50=CICC2|54=1|55=600338.SS|57=SWAP|59=0|60=20210813-01:30:05|100=SS|120=USD|207=SS|10=226|
20210813-01:30:06.431487000 : 8=FIX.4.2|9=232|35=D|34=588|49=SenderCompID|52=20210813-01:30:06.431|56=TargetCompID|1=CICC2|11=130000000000_HAS093001396046e0|15=CNY|21=1|22=5|38=200|40=2|44=105.1100|48=688800.SS|50=CICC2|54=1|55=688800.SS|57=SWAP|59=0|60=20210813-01:30:06|100=SS|120=USD|207=SS|10=194|
20210813-01:30:06.670365000 : 8=FIX.4.2|9=233|35=D|34=589|49=SenderCompID|52=20210813-01:30:06.670|56=TargetCompID|1=CICC2|11=130000000000_SAS093001406428e0|15=CNY|21=1|22=5|38=20000|40=2|44=13.9300|48=000066.SZ|50=CICC2|54=2|55=000066.SZ|57=SWAP|59=0|60=20210813-01:30:06|100=SZ|120=USD|207=SZ|10=252|
20210813-01:30:06.828043000 : 8=FIX.4.2|9=233|35=D|34=590|49=SenderCompID|52=20210813-01:30:06.827|56=TargetCompID|1=CICC2|11=130000000000_SAS093001411181e0|15=CNY|21=1|22=5|38=19000|40=2|44=12.5400|48=000811.SZ|50=CICC2|54=1|55=000811.SZ|57=SWAP|59=0|60=20210813-01:30:06|100=SZ|120=USD|207=SZ|10=230|
20210813-01:30:06.829672000 : 8=FIX.4.2|9=233|35=D|34=591|49=SenderCompID|52=20210813-01:30:06.829|56=TargetCompID|1=CICC2|11=130000000000_SAS093001396070e0|15=CNY|21=1|22=5|38=20000|40=2|44=36.5500|48=000831.SZ|50=CICC2|54=1|55=000831.SZ|57=SWAP|59=0|60=20210813-01:30:06|100=SZ|120=USD|207=SZ|10=250|
20210813-01:30:07.062519000 : 8=FIX.4.2|9=232|35=D|34=592|49=SenderCompID|52=20210813-01:30:07.062|56=TargetCompID|1=CICC2|11=130000000000_SAS093001396091e0|15=CNY|21=1|22=5|38=1300|40=2|44=15.0600|48=002213.SZ|50=CICC2|54=1|55=002213.SZ|57=SWAP|59=0|60=20210813-01:30:07|100=SZ|120=USD|207=SZ|10=190|
20210813-01:30:07.782005000 : 8=FIX.4.2|9=233|35=D|34=593|49=SenderCompID|52=20210813-01:30:07.781|56=TargetCompID|1=CICC2|11=130000000000_SAS093001386196e0|15=CNY|21=1|22=5|38=21200|40=2|44=17.6500|48=300340.SZ|50=CICC2|54=1|55=300340.SZ|57=SWAP|59=0|60=20210813-01:30:07|100=SZ|120=USD|207=SZ|10=000|
20210813-01:30:08.010693000 : 8=FIX.4.2|9=233|35=D|34=594|49=SenderCompID|52=20210813-01:30:08.010|56=TargetCompID|1=CICC2|11=130000000000_SAS093001406530e0|15=CNY|21=1|22=5|38=20000|40=2|44=19.0600|48=300501.SZ|50=CICC2|54=2|55=300501.SZ|57=SWAP|59=0|60=20210813-01:30:08|100=SZ|120=USD|207=SZ|10=225|
20210813-01:30:08.105610000 : 8=FIX.4.2|9=233|35=D|34=595|49=SenderCompID|52=20210813-01:30:08.105|56=TargetCompID|1=CICC2|11=130000000000_SAS093001392917e0|15=CNY|21=1|22=5|38=20000|40=2|44=62.1500|48=300450.SZ|50=CICC2|54=1|55=300450.SZ|57=SWAP|59=0|60=20210813-01:30:08|100=SZ|120=USD|207=SZ|10=250|
20210813-01:30:08.720433000 : 8=FIX.4.2|9=233|35=D|34=596|49=SenderCompID|52=20210813-01:30:08.720|56=TargetCompID|1=CICC2|11=130000000000_HAS093001396182e0|15=CNY|21=1|22=5|38=3865|40=2|44=105.1100|48=688800.SS|50=CICC2|54=1|55=688800.SS|57=SWAP|59=0|60=20210813-01:30:08|100=SS|120=USD|207=SS|10=000|
20210813-01:30:08.955579000 : 8=FIX.4.2|9=231|35=D|34=597|49=SenderCompID|52=20210813-01:30:08.955|56=TargetCompID|1=CICC2|11=130000000000_HAS093001392957e0|15=CNY|21=1|22=5|38=100|40=2|44=31.7700|48=600338.SS|50=CICC2|54=1|55=600338.SS|57=SWAP|59=0|60=20210813-01:30:08|100=SS|120=USD|207=SS|10=151|
20210813-01:30:09.596934000 : 8=FIX.4.2|9=233|35=D|34=598|49=SenderCompID|52=20210813-01:30:09.596|56=TargetCompID|1=CICC2|11=130000000000_SAS093001411319e0|15=CNY|21=1|22=5|38=20000|40=2|44=13.9300|48=000066.SZ|50=CICC2|54=2|55=000066.SZ|57=SWAP|59=0|60=20210813-01:30:09|100=SZ|120=USD|207=SZ|10=255|
20210813-01:30:09.770183000 : 8=FIX.4.2|9=232|35=D|34=599|49=SenderCompID|52=20210813-01:30:09.770|56=TargetCompID|1=CICC2|11=130000000000_SAS093001406603e0|15=CNY|21=1|22=5|38=4100|40=2|44=12.5400|48=000811.SZ|50=CICC2|54=1|55=000811.SZ|57=SWAP|59=0|60=20210813-01:30:09|100=SZ|120=USD|207=SZ|10=196|
20210813-01:30:09.780339000 : 8=FIX.4.2|9=232|35=D|34=600|49=SenderCompID|52=20210813-01:30:09.780|56=TargetCompID|1=CICC2|11=130000000000_SAS093001393006e0|15=CNY|21=1|22=5|38=1100|40=2|44=36.5500|48=000831.SZ|50=CICC2|54=1|55=000831.SZ|57=SWAP|59=0|60=20210813-01:30:09|100=SZ|120=USD|207=SZ|10=191|
20210813-01:30:09.969338000 : 8=FIX.4.2|9=231|35=D|34=601|49=SenderCompID|52=20210813-01:30:09.969|56=TargetCompID|1=CICC2|11=130000000000_SAS093001393020e0|15=CNY|21=1|22=5|38=400|40=2|44=15.0600|48=002213.SZ|50=CICC2|54=1|55=002213.SZ|57=SWAP|59=0|60=20210813-01:30:09|100=SZ|120=USD|207=SZ|10=140|
20210813-01:30:10.483797000 : 8=FIX.4.2|9=233|35=D|34=602|49=SenderCompID|52=20210813-01:30:10.483|56=TargetCompID|1=CICC2|11=130000000000_SAS093001396296e0|15=CNY|21=1|22=5|38=21200|40=2|44=17.6500|48=300340.SZ|50=CICC2|54=1|55=300340.SZ|57=SWAP|59=0|60=20210813-01:30:10|100=SZ|120=USD|207=SZ|10=235|
20210813-01:30:10.496482000 : 8=FIX.4.2|9=233|35=D|34=603|49=SenderCompID|52=20210813-01:30:10.496|56=TargetCompID|1=CICC2|11=130000000000_SAS093001416422e0|15=CNY|21=1|22=5|38=20000|40=2|44=19.0600|48=300501.SZ|50=CICC2|54=2|55=300501.SZ|57=SWAP|59=0|60=20210813-01:30:10|100=SZ|120=USD|207=SZ|10=213|
20210813-01:30:10.546715000 : 8=FIX.4.2|9=233|35=D|34=604|49=SenderCompID|52=20210813-01:30:10.546|56=TargetCompID|1=CICC2|11=130000000000_SAS093001416429e0|15=CNY|21=1|22=5|38=20000|40=2|44=62.1500|48=300450.SZ|50=CICC2|54=1|55=300450.SZ|57=SWAP|59=0|60=20210813-01:30:10|100=SZ|120=USD|207=SZ|10=226|
20210813-01:30:12.629815000 : 8=FIX.4.2|9=233|35=D|34=605|49=SenderCompID|52=20210813-01:30:12.629|56=TargetCompID|1=CICC2|11=130000000000_SAS093001416552e0|15=CNY|21=1|22=5|38=20000|40=2|44=13.9300|48=000066.SZ|50=CICC2|54=2|55=000066.SZ|57=SWAP|59=0|60=20210813-01:30:12|100=SZ|120=USD|207=SZ|10=231|
20210813-01:30:12.779797000 : 8=FIX.4.2|9=232|35=D|34=606|49=SenderCompID|52=20210813-01:30:12.779|56=TargetCompID|1=CICC2|11=130000000000_SAS093001411543e0|15=CNY|21=1|22=5|38=2500|40=2|44=12.5400|48=000811.SZ|50=CICC2|54=1|55=000811.SZ|57=SWAP|59=0|60=20210813-01:30:12|100=SZ|120=USD|207=SZ|10=186|
20210813-01:30:12.892188000 : 8=FIX.4.2|9=231|35=D|34=607|49=SenderCompID|52=20210813-01:30:12.892|56=TargetCompID|1=CICC2|11=130000000000_SAS093001401866e0|15=CNY|21=1|22=5|38=3300|40=2|44=15.0600|48=002213.SZ|50=CICC2|54=1|55=002213.SZ|57=SWAP|59=0|60=20210813-01:30:12|100=SZ|120=USD|207=SZ|10=131|
20210813-01:30:13.077821000 : 8=FIX.4.2|9=231|35=D|34=608|49=SenderCompID|52=20210813-01:30:13.077|56=TargetCompID|1=CICC2|11=130000000000_SAS093001386528e0|15=CNY|21=1|22=5|38=200|40=2|44=20.2800|48=002816.SZ|50=CICC2|54=1|55=002816.SZ|57=SWAP|59=0|60=20210813-01:30:13|100=SZ|120=USD|207=SZ|10=155|
20210813-01:30:13.428431000 : 8=FIX.4.2|9=233|35=D|34=609|49=SenderCompID|52=20210813-01:30:13.428|56=TargetCompID|1=CICC2|11=130000000000_SAS093001386563e0|15=CNY|21=1|22=5|38=21200|40=2|44=17.6500|48=300340.SZ|50=CICC2|54=1|55=300340.SZ|57=SWAP|59=0|60=20210813-01:30:13|100=SZ|120=USD|207=SZ|10=243|
20210813-01:30:13.431621000 : 8=FIX.4.2|9=233|35=D|34=610|49=SenderCompID|52=20210813-01:30:13.431|56=TargetCompID|1=CICC2|11=130000000000_SAS093001411610e0|15=CNY|21=1|22=5|38=20000|40=2|44=62.1500|48=300450.SZ|50=CICC2|54=1|55=300450.SZ|57=SWAP|59=0|60=20210813-01:30:13|100=SZ|120=USD|207=SZ|10=214|
20210813-01:30:13.460898000 : 8=FIX.4.2|9=233|35=D|34=611|49=SenderCompID|52=20210813-01:30:13.460|56=TargetCompID|1=CICC2|11=130000000000_SAS093001396520e0|15=CNY|21=1|22=5|38=20000|40=2|44=19.0600|48=300501.SZ|50=CICC2|54=2|55=300501.SZ|57=SWAP|59=0|60=20210813-01:30:13|100=SZ|120=USD|207=SZ|10=216|
20210813-01:30:14.072843000 : 8=FIX.4.2|9=224|35=F|34=612|49=SenderCompID|52=20210813-01:30:14.072|56=TargetCompID|1=CICC2|11=130801080001_HAS093001396046e0|22=5|38=200|41=130000000000_HAS093001396046e0|48=688800.SS|50=CICC2|54=1|55=688800.SS|60=20210813-01:30:14|100=SS|120=USD|207=SS|10=140|
20210813-01:30:15.102082000 : 8=FIX.4.2|9=224|35=F|34=613|49=SenderCompID|52=20210813-01:30:15.102|56=TargetCompID|1=CICC2|11=130801080002_SAS093001411042e0|22=5|38=100|41=130000000000_SAS093001411042e0|48=300340.SZ|50=CICC2|54=1|55=300340.SZ|60=20210813-01:30:15|100=SZ|120=USD|207=SZ|10=115|
20210813-01:30:15.157503000 : 8=FIX.4.2|9=226|35=F|34=614|49=SenderCompID|52=20210813-01:30:15.157|56=TargetCompID|1=CICC2|11=130801080003_SAS093001406530e0|22=5|38=20000|41=130000000000_SAS093001406530e0|48=300501.SZ|50=CICC2|54=2|55=300501.SZ|60=20210813-01:30:15|100=SZ|120=USD|207=SZ|10=237|
20210813-01:30:15.607582000 : 8=FIX.4.2|9=233|35=D|34=615|49=SenderCompID|52=20210813-01:30:15.607|56=TargetCompID|1=CICC2|11=130000000000_SAS093001407024e0|15=CNY|21=1|22=5|38=20000|40=2|44=13.9300|48=000066.SZ|50=CICC2|54=2|55=000066.SZ|57=SWAP|59=0|60=20210813-01:30:15|100=SZ|120=USD|207=SZ|10=233|
20210813-01:30:15.781529000 : 8=FIX.4.2|9=231|35=D|34=616|49=SenderCompID|52=20210813-01:30:15.781|56=TargetCompID|1=CICC2|11=130000000000_SAS093001386709e0|15=CNY|21=1|22=5|38=3500|40=2|44=12.5400|48=000811.SZ|50=CICC2|54=1|55=000811.SZ|57=SWAP|59=0|60=20210813-01:30:15|100=SZ|120=USD|207=SZ|10=146|
20210813-01:30:16.743455000 : 8=FIX.4.2|9=233|35=D|34=617|49=SenderCompID|52=20210813-01:30:16.743|56=TargetCompID|1=CICC2|11=130000000000_SAS093001411852e0|15=CNY|21=1|22=5|38=21200|40=2|44=17.6500|48=300340.SZ|50=CICC2|54=1|55=300340.SZ|57=SWAP|59=0|60=20210813-01:30:16|100=SZ|120=USD|207=SZ|10=241|
20210813-01:30:16.782461000 : 8=FIX.4.2|9=233|35=D|34=618|49=SenderCompID|52=20210813-01:30:16.782|56=TargetCompID|1=CICC2|11=130000000000_SAS093001393518e0|15=CNY|21=1|22=5|38=20000|40=2|44=19.0600|48=300501.SZ|50=CICC2|54=2|55=300501.SZ|57=SWAP|59=0|60=20210813-01:30:16|100=SZ|120=USD|207=SZ|10=245|
20210813-01:30:16.792192000 : 8=FIX.4.2|9=232|35=D|34=619|49=SenderCompID|52=20210813-01:30:16.792|56=TargetCompID|1=CICC2|11=130000000000_SAS093001407112e0|15=CNY|21=1|22=5|38=1300|40=2|44=62.1500|48=300450.SZ|50=CICC2|54=1|55=300450.SZ|57=SWAP|59=0|60=20210813-01:30:16|100=SZ|120=USD|207=SZ|10=196|
20210813-01:30:18.897626000 : 8=FIX.4.2|9=233|35=D|34=620|49=SenderCompID|52=20210813-01:30:18.897|56=TargetCompID|1=CICC2|11=130000000000_SAS093001402261e0|15=CNY|21=1|22=5|38=20000|40=2|44=13.9300|48=000066.SZ|50=CICC2|54=2|55=000066.SZ|57=SWAP|59=0|60=20210813-01:30:18|100=SZ|120=USD|207=SZ|10=245|
20210813-01:30:18.942430000 : 8=FIX.4.2|9=232|35=D|34=621|49=SenderCompID|52=20210813-01:30:18.942|56=TargetCompID|1=CICC2|11=130000000000_SAS093001393639e0|15=CNY|21=1|22=5|38=5000|40=2|44=12.5400|48=000811.SZ|50=CICC2|54=1|55=000811.SZ|57=SWAP|59=0|60=20210813-01:30:18|100=SZ|120=USD|207=SZ|10=193|
20210813-01:30:19.359930000 : 8=FIX.4.2|9=225|35=F|34=622|49=SenderCompID|52=20210813-01:30:19.359|56=TargetCompID|1=CICC2|11=130801080004_HAS093001396182e0|22=5|38=3865|41=130000000000_HAS093001396182e0|48=688800.SS|50=CICC2|54=1|55=688800.SS|60=20210813-01:30:19|100=SS|120=USD|207=SS|10=233|
20210813-01:30:19.489999000 : 8=FIX.4.2|9=232|35=D|34=623|49=SenderCompID|52=20210813-01:30:19.489|56=TargetCompID|1=CICC2|11=130000000000_SAS093001393679e0|15=CNY|21=1|22=5|38=6700|40=2|44=19.0600|48=300501.SZ|50=CICC2|54=2|55=300501.SZ|57=SWAP|59=0|60=20210813-01:30:19|100=SZ|120=USD|207=SZ|10=218|
20210813-01:30:19.494108000 : 8=FIX.4.2|9=233|35=D|34=624|49=SenderCompID|52=20210813-01:30:19.494|56=TargetCompID|1=CICC2|11=130000000000_SAS093001386933e0|15=CNY|21=1|22=5|38=21200|40=2|44=17.6500|48=300340.SZ|50=CICC2|54=1|55=300340.SZ|57=SWAP|59=0|60=20210813-01:30:19|100=SZ|120=USD|207=SZ|10=008|
20210813-01:30:19.972924000 : 8=FIX.4.2|9=232|35=D|34=625|49=SenderCompID|52=20210813-01:30:19.972|56=TargetCompID|1=CICC2|11=130000000000_HAS093001407291e0|15=CNY|21=1|22=5|38=524|40=2|44=105.1100|48=688800.SS|50=CICC2|54=1|55=688800.SS|57=SWAP|59=0|60=20210813-01:30:19|100=SS|120=USD|207=SS|10=201|
20210813-01:30:20.211567000 : 8=FIX.4.2|9=226|35=F|34=626|49=SenderCompID|52=20210813-01:30:20.211|56=TargetCompID|1=CICC2|11=130801080005_SAS093001396520e0|22=5|38=20000|41=130000000000_SAS093001396520e0|48=300501.SZ|50=CICC2|54=2|55=300501.SZ|60=20210813-01:30:20|100=SZ|120=USD|207=SZ|10=239|
20210813-01:30:20.245316000 : 8=FIX.4.2|9=226|35=F|34=627|49=SenderCompID|52=20210813-01:30:20.245|56=TargetCompID|1=CICC2|11=130801080006_SAS093001416422e0|22=5|38=20000|41=130000000000_SAS093001416422e0|48=300501.SZ|50=CICC2|54=2|55=300501.SZ|60=20210813-01:30:20|100=SZ|120=USD|207=SZ|10=236|
20210813-01:30:20.443848000 : 8=FIX.4.2|9=225|35=F|34=628|49=SenderCompID|52=20210813-01:30:20.443|56=TargetCompID|1=CICC2|11=130801080007_SAS093001401866e0|22=5|38=3300|41=130000000000_SAS093001401866e0|48=002213.SZ|50=CICC2|54=1|55=002213.SZ|60=20210813-01:30:20|100=SZ|120=USD|207=SZ|10=202|
20210813-01:30:20.600492000 : 8=FIX.4.2|9=226|35=F|34=629|49=SenderCompID|52=20210813-01:30:20.600|56=TargetCompID|1=CICC2|11=130801080008_SAS093001416552e0|22=5|38=20000|41=130000000000_SAS093001416552e0|48=000066.SZ|50=CICC2|54=2|55=000066.SZ|60=20210813-01:30:20|100=SZ|120=USD|207=SZ|10=249|
20210813-01:30:21.656602000 : 8=FIX.4.2|9=233|35=D|34=630|49=SenderCompID|52=20210813-01:30:21.656|56=TargetCompID|1=CICC2|11=130000000000_SAS093001412112e0|15=CNY|21=1|22=5|38=20000|40=2|44=13.9300|48=000066.SZ|50=CICC2|54=2|55=000066.SZ|57=SWAP|59=0|60=20210813-01:30:21|100=SZ|120=USD|207=SZ|10=223|
20210813-01:30:21.923328000 : 8=FIX.4.2|9=232|35=D|34=631|49=SenderCompID|52=20210813-01:30:21.923|56=TargetCompID|1=CICC2|11=130000000000_SAS093001387053e0|15=CNY|21=1|22=5|38=2200|40=2|44=15.0600|48=002213.SZ|50=CICC2|54=1|55=002213.SZ|57=SWAP|59=0|60=20210813-01:30:21|100=SZ|120=USD|207=SZ|10=174|
20210813-01:30:22.383903000 : 8=FIX.4.2|9=233|35=D|34=632|49=SenderCompID|52=20210813-01:30:22.383|56=TargetCompID|1=CICC2|11=130000000000_SAS093001393827e0|15=CNY|21=1|22=5|38=21200|40=2|44=17.6500|48=300340.SZ|50=CICC2|54=1|55=300340.SZ|57=SWAP|59=0|60=20210813-01:30:22|100=SZ|120=USD|207=SZ|10=241|
20210813-01:30:22.465222000 : 8=FIX.4.2|9=233|35=D|34=633|49=SenderCompID|52=20210813-01:30:22.465|56=TargetCompID|1=CICC2|11=130000000000_SAS093001417143e0|15=CNY|21=1|22=5|38=20000|40=2|44=19.0600|48=300501.SZ|50=CICC2|54=2|55=300501.SZ|57=SWAP|59=0|60=20210813-01:30:22|100=SZ|120=USD|207=SZ|10=220|
20210813-01:30:23.011521000 : 8=FIX.4.2|9=224|35=F|34=634|49=SenderCompID|52=20210813-01:30:23.011|56=TargetCompID|1=CICC2|11=130801080009_SAS093001386528e0|22=5|38=200|41=130000000000_SAS093001386528e0|48=002816.SZ|50=CICC2|54=1|55=002816.SZ|60=20210813-01:30:23|100=SZ|120=USD|207=SZ|10=177|
20210813-01:30:23.327424000 : 8=FIX.4.2|9=233|35=D|34=635|49=SenderCompID|52=20210813-01:30:23.327|56=TargetCompID|1=CICC2|11=130000000000_HAS093001407460e0|15=CNY|21=1|22=5|38=2034|40=2|44=105.1100|48=688800.SS|50=CICC2|54=1|55=688800.SS|57=SWAP|59=0|60=20210813-01:30:23|100=SS|120=USD|207=SS|10=231|
20210813-01:30:24.648599000 : 8=FIX.4.2|9=231|35=D|34=636|49=SenderCompID|52=20210813-01:30:24.648|56=TargetCompID|1=CICC2|11=130000000000_SAS093001397121e0|15=CNY|21=1|22=5|38=7500|40=2|44=13.9300|48=000066.SZ|50=CICC2|54=2|55=000066.SZ|57=SWAP|59=0|60=20210813-01:30:24|100=SZ|120=USD|207=SZ|10=153|
20210813-01:30:24.898718000 : 8=FIX.4.2|9=231|35=D|34=637|49=SenderCompID|52=20210813-01:30:24.898|56=TargetCompID|1=CICC2|11=130000000000_SAS093001407538e0|15=CNY|21=1|22=5|38=900|40=2|44=15.0600|48=002213.SZ|50=CICC2|54=1|55=002213.SZ|57=SWAP|59=0|60=20210813-01:30:24|100=SZ|120=USD|207=SZ|10=154|
20210813-01:30:25.006659000 : 8=FIX.4.2|9=231|35=D|34=638|49=SenderCompID|52=20210813-01:30:25.006|56=TargetCompID|1=CICC2|11=130000000000_SAS093001387211e0|15=CNY|21=1|22=5|38=100|40=2|44=25.5000|48=002518.SZ|50=CICC2|54=1|55=002518.SZ|57=SWAP|59=0|60=20210813-01:30:25|100=SZ|120=USD|207=SZ|10=155|
20210813-01:30:25.259073000 : 8=FIX.4.2|9=231|35=D|34=639|49=SenderCompID|52=20210813-01:30:25.259|56=TargetCompID|1=CICC2|11=130000000000_SAS093001407566e0|15=CNY|21=1|22=5|38=200|40=2|44=20.2800|48=002816.SZ|50=CICC2|54=1|55=002816.SZ|57=SWAP|59=0|60=20210813-01:30:25|100=SZ|120=USD|207=SZ|10=165|
20210813-01:30:25.274448000 : 8=FIX.4.2|9=226|35=F|34=640|49=SenderCompID|52=20210813-01:30:25.274|56=TargetCompID|1=CICC2|11=130801080010_SAS093001393518e0|22=5|38=20000|41=130000000000_SAS093001393518e0|48=300501.SZ|50=CICC2|54=2|55=300501.SZ|60=20210813-01:30:25|100=SZ|120=USD|207=SZ|10=002|
20210813-01:30:25.374489000 : 8=FIX.4.2|9=233|35=D|34=641|49=SenderCompID|52=20210813-01:30:25.374|56=TargetCompID|1=CICC2|11=130000000000_SAS093001397177e0|15=CNY|21=1|22=5|38=21200|40=2|44=17.6500|48=300340.SZ|50=CICC2|54=1|55=300340.SZ|57=SWAP|59=0|60=20210813-01:30:25|100=SZ|120=USD|207=SZ|10=254|
20210813-01:30:25.413586000 : 8=FIX.4.2|9=232|35=D|34=642|49=SenderCompID|52=20210813-01:30:25.413|56=TargetCompID|1=CICC2|11=130000000000_SAS093001417307e0|15=CNY|21=1|22=5|38=1300|40=2|44=19.0600|48=300501.SZ|50=CICC2|54=2|55=300501.SZ|57=SWAP|59=0|60=20210813-01:30:25|100=SZ|120=USD|207=SZ|10=172|
20210813-01:30:26.024927000 : 8=FIX.4.2|9=232|35=D|34=643|49=SenderCompID|52=20210813-01:30:26.024|56=TargetCompID|1=CICC2|11=130000000000_HAS093001402625e0|15=CNY|21=1|22=5|38=843|40=2|44=105.1100|48=688800.SS|50=CICC2|54=1|55=688800.SS|57=SWAP|59=0|60=20210813-01:30:26|100=SS|120=USD|207=SS|10=190|
20210813-01:30:27.901312000 : 8=FIX.4.2|9=232|35=D|34=644|49=SenderCompID|52=20210813-01:30:27.901|56=TargetCompID|1=CICC2|11=130000000000_SAS093001397287e0|15=CNY|21=1|22=5|38=2300|40=2|44=15.0600|48=002213.SZ|50=CICC2|54=1|55=002213.SZ|57=SWAP|59=0|60=20210813-01:30:27|100=SZ|120=USD|207=SZ|10=195|
20210813-01:30:28.112813000 : 8=FIX.4.2|9=233|35=D|34=645|49=SenderCompID|52=20210813-01:30:28.112|56=TargetCompID|1=CICC2|11=130000000000_SAS093001412437e0|15=CNY|21=1|22=5|38=20000|40=2|44=25.5000|48=002518.SZ|50=CICC2|54=1|55=002518.SZ|57=SWAP|59=0|60=20210813-01:30:28|100=SZ|120=USD|207=SZ|10=255|
20210813-01:30:28.456309000 : 8=FIX.4.2|9=232|35=D|34=646|49=SenderCompID|52=20210813-01:30:28.456|56=TargetCompID|1=CICC2|11=130000000000_SAS093001417450e0|15=CNY|21=1|22=5|38=13600|40=2|44=19.0600|48=300501.SZ|50=CICC2|54=2|55=300501.SZ|57=SWAP|59=0|60=20210813-01:30:28|100=SZ|120=USD|207=SZ|10=193|
20210813-01:30:30.020606000 : 8=FIX.4.2|9=224|35=F|34=647|49=SenderCompID|52=20210813-01:30:30.020|56=TargetCompID|1=CICC2|11=130801080012_HAS092201390759e0|22=5|38=300|41=130000000000_HAS092201390759e0|48=688800.SS|50=CICC2|54=1|55=688800.SS|60=20210813-01:30:30|100=SS|120=USD|207=SS|10=152|
20210813-01:30:30.020741000 : 8=FIX.4.2|9=224|35=F|34=648|49=SenderCompID|52=20210813-01:30:30.020|56=TargetCompID|1=CICC2|11=130801080011_HAS092301390771e0|22=5|38=286|41=130000000000_HAS092301390771e0|48=688800.SS|50=CICC2|54=1|55=688800.SS|60=20210813-01:30:30|100=SS|120=USD|207=SS|10=155|
20210813-01:30:30.040771000 : 8=FIX.4.2|9=224|35=F|34=649|49=SenderCompID|52=20210813-01:30:30.040|56=TargetCompID|1=CICC2|11=130801080013_HAS092401400487e0|22=5|38=279|41=130000000000_HAS092401400487e0|48=688800.SS|50=CICC2|54=1|55=688800.SS|60=20210813-01:30:30|100=SS|120=USD|207=SS|10=156|
20210813-01:30:30.043989000 : 8=FIX.4.2|9=224|35=F|34=650|49=SenderCompID|52=20210813-01:30:30.043|56=TargetCompID|1=CICC2|11=130801080014_HAS092401400500e0|22=5|38=253|41=130000000000_HAS092401400500e0|48=688800.SS|50=CICC2|54=1|55=688800.SS|60=20210813-01:30:30|100=SS|120=USD|207=SS|10=116|
20210813-01:30:30.194317000 : 8=FIX.4.2|9=225|35=F|34=651|49=SenderCompID|52=20210813-01:30:30.194|56=TargetCompID|1=CICC2|11=130801080015_SAS093001393679e0|22=5|38=6700|41=130000000000_SAS093001393679e0|48=300501.SZ|50=CICC2|54=2|55=300501.SZ|60=20210813-01:30:30|100=SZ|120=USD|207=SZ|10=236|
20210813-01:30:31.257506000 : 8=FIX.4.2|9=233|35=D|34=652|49=SenderCompID|52=20210813-01:30:31.257|56=TargetCompID|1=CICC2|11=130000000000_SAS093001402979e0|15=CNY|21=1|22=5|38=20000|40=2|44=25.5000|48=002518.SZ|50=CICC2|54=1|55=002518.SZ|57=SWAP|59=0|60=20210813-01:30:31|100=SZ|120=USD|207=SZ|10=003|
20210813-01:30:31.348069000 : 8=FIX.4.2|9=231|35=D|34=653|49=SenderCompID|52=20210813-01:30:31.348|56=TargetCompID|1=CICC2|11=130000000000_SAS093001417713e0|15=CNY|21=1|22=5|38=200|40=2|44=20.2800|48=002816.SZ|50=CICC2|54=1|55=002816.SZ|57=SWAP|59=0|60=20210813-01:30:31|100=SZ|120=USD|207=SZ|10=149|
20210813-01:30:31.506856000 : 8=FIX.4.2|9=233|35=D|34=654|49=SenderCompID|52=20210813-01:30:31.506|56=TargetCompID|1=CICC2|11=130000000000_SAS093001408003e0|15=CNY|21=1|22=5|38=21200|40=2|44=17.6500|48=300340.SZ|50=CICC2|54=1|55=300340.SZ|57=SWAP|59=0|60=20210813-01:30:31|100=SZ|120=USD|207=SZ|10=227|
20210813-01:30:31.530358000 : 8=FIX.4.2|9=231|35=D|34=655|49=SenderCompID|52=20210813-01:30:31.530|56=TargetCompID|1=CICC2|11=130000000000_SAS093001408008e0|15=CNY|21=1|22=5|38=800|40=2|44=19.0600|48=300501.SZ|50=CICC2|54=2|55=300501.SZ|57=SWAP|59=0|60=20210813-01:30:31|100=SZ|120=USD|207=SZ|10=125|
20210813-01:30:34.331297000 : 8=FIX.4.2|9=232|35=D|34=656|49=SenderCompID|52=20210813-01:30:34.331|56=TargetCompID|1=CICC2|11=130000000000_SAS093001397892e0|15=CNY|21=1|22=5|38=10100|40=2|44=25.5000|48=002518.SZ|50=CICC2|54=1|55=002518.SZ|57=SWAP|59=0|60=20210813-01:30:34|100=SZ|120=USD|207=SZ|10=217|
20210813-01:30:34.523462000 : 8=FIX.4.2|9=233|35=D|34=657|49=SenderCompID|52=20210813-01:30:34.523|56=TargetCompID|1=CICC2|11=130000000000_SAS093001418054e0|15=CNY|21=1|22=5|38=21200|40=2|44=17.6500|48=300340.SZ|50=CICC2|54=1|55=300340.SZ|57=SWAP|59=0|60=20210813-01:30:34|100=SZ|120=USD|207=SZ|10=243|
20210813-01:30:35.294575000 : 8=FIX.4.2|9=225|35=F|34=658|49=SenderCompID|52=20210813-01:30:35.294|56=TargetCompID|1=CICC2|11=130801080016_SAS093001417307e0|22=5|38=1300|41=130000000000_SAS093001417307e0|48=300501.SZ|50=CICC2|54=2|55=300501.SZ|60=20210813-01:30:35|100=SZ|120=USD|207=SZ|10=216|
20210813-01:30:35.303578000 : 8=FIX.4.2|9=226|35=F|34=659|49=SenderCompID|52=20210813-01:30:35.303|56=TargetCompID|1=CICC2|11=130801080017_SAS093001417450e0|22=5|38=13600|41=130000000000_SAS093001417450e0|48=300501.SZ|50=CICC2|54=2|55=300501.SZ|60=20210813-01:30:35|100=SZ|120=USD|207=SZ|10=006|
20210813-01:30:35.481712000 : 8=FIX.4.2|9=225|35=F|34=660|49=SenderCompID|52=20210813-01:30:35.481|56=TargetCompID|1=CICC2|11=130801080018_SAS093001397287e0|22=5|38=2300|41=130000000000_SAS093001397287e0|48=002213.SZ|50=CICC2|54=1|55=002213.SZ|60=20210813-01:30:35|100=SZ|120=USD|207=SZ|10=235|
20210813-01:30:38.570859000 : 8=FIX.4.2|9=233|35=D|34=661|49=SenderCompID|52=20210813-01:30:38.570|56=TargetCompID|1=CICC2|11=130000000000_HAS093001398213e0|15=CNY|21=1|22=5|38=1428|40=2|44=105.1100|48=688800.SS|50=CICC2|54=1|55=688800.SS|57=SWAP|59=0|60=20210813-01:30:38|100=SS|120=USD|207=SS|10=253|
20210813-01:30:38.952384000 : 8=FIX.4.2|9=224|35=F|34=662|49=SenderCompID|52=20210813-01:30:38.952|56=TargetCompID|1=CICC2|11=130801080019_SAS093001417713e0|22=5|38=200|41=130000000000_SAS093001417713e0|48=002816.SZ|50=CICC2|54=1|55=002816.SZ|60=20210813-01:30:38|100=SZ|120=USD|207=SZ|10=187|
20210813-01:30:38.954537000 : 8=FIX.4.2|9=224|35=F|34=663|49=SenderCompID|52=20210813-01:30:38.954|56=TargetCompID|1=CICC2|11=130801080020_SAS093001407566e0|22=5|38=200|41=130000000000_SAS093001407566e0|48=002816.SZ|50=CICC2|54=1|55=002816.SZ|60=20210813-01:30:38|100=SZ|120=USD|207=SZ|10=192|
20210813-01:30:42.914220000 : 8=FIX.4.2|9=232|35=D|34=664|49=SenderCompID|52=20210813-01:30:42.914|56=TargetCompID|1=CICC2|11=130000000000_SAS093001875327e0|15=CNY|21=1|22=5|38=3000|40=2|44=15.0600|48=002213.SZ|50=CICC2|54=1|55=002213.SZ|57=SWAP|59=0|60=20210813-01:30:42|100=SZ|120=USD|207=SZ|10=195|
20210813-01:30:43.112050000 : 8=FIX.4.2|9=231|35=D|34=665|49=SenderCompID|52=20210813-01:30:43.111|56=TargetCompID|1=CICC2|11=130000000000_SAS093001388616e0|15=CNY|21=1|22=5|38=500|40=2|44=20.2800|48=002816.SZ|50=CICC2|54=1|55=002816.SZ|57=SWAP|59=0|60=20210813-01:30:43|100=SZ|120=USD|207=SZ|10=165|
20210813-01:30:43.382252000 : 8=FIX.4.2|9=233|35=D|34=666|49=SenderCompID|52=20210813-01:30:43.382|56=TargetCompID|1=CICC2|11=130000000000_SAS093001388645e0|15=CNY|21=1|22=5|38=11200|40=2|44=17.6500|48=300340.SZ|50=CICC2|54=1|55=300340.SZ|57=SWAP|59=0|60=20210813-01:30:43|100=SZ|120=USD|207=SZ|10=253|
20210813-01:30:43.945533000 : 8=FIX.4.2|9=232|35=D|34=667|49=SenderCompID|52=20210813-01:30:43.945|56=TargetCompID|1=CICC2|11=130000000000_SAS093001413725e0|15=CNY|21=1|22=5|38=12900|40=2|44=19.0600|48=300501.SZ|50=CICC2|54=2|55=300501.SZ|57=SWAP|59=0|60=20210813-01:30:43|100=SZ|120=USD|207=SZ|10=195|
20210813-01:30:44.177105000 : 8=FIX.4.2|9=231|35=D|34=668|49=SenderCompID|52=20210813-01:30:44.177|56=TargetCompID|1=CICC2|11=130000000000_HAS093001408993e0|15=CNY|21=1|22=5|38=376|40=2|44=105.1100|48=688800.SS|50=CICC2|54=1|55=688800.SS|57=SWAP|59=0|60=20210813-01:30:44|100=SS|120=USD|207=SS|10=166|
20210813-01:30:47.029054000 : 8=FIX.4.2|9=231|35=D|34=669|49=SenderCompID|52=20210813-01:30:47.028|56=TargetCompID|1=CICC2|11=130000000000_HAS093001398770e0|15=CNY|21=1|22=5|38=100|40=2|44=12.3500|48=600348.SS|50=CICC2|54=1|55=600348.SS|57=SWAP|59=0|60=20210813-01:30:47|100=SS|120=USD|207=SS|10=139|
20210813-01:30:47.111954000 : 8=FIX.4.2|9=232|35=D|34=670|49=SenderCompID|52=20210813-01:30:47.111|56=TargetCompID|1=CICC2|11=130000000000_HAS093001398773e0|15=CNY|21=1|22=5|38=819|40=2|44=105.1100|48=688800.SS|50=CICC2|54=1|55=688800.SS|57=SWAP|59=0|60=20210813-01:30:47|100=SS|120=USD|207=SS|10=214|
20210813-01:30:48.821971000 : 8=FIX.4.2|9=230|35=D|34=671|49=SenderCompID|52=20210813-01:30:48.821|56=TargetCompID|1=CICC2|11=130000000000_SAS093001409268e0|15=CNY|21=1|22=5|38=100|40=2|44=9.7800|48=000848.SZ|50=CICC2|54=1|55=000848.SZ|57=SWAP|59=0|60=20210813-01:30:48|100=SZ|120=USD|207=SZ|10=112|
20210813-01:30:48.941506000 : 8=FIX.4.2|9=232|35=D|34=672|49=SenderCompID|52=20210813-01:30:48.941|56=TargetCompID|1=CICC2|11=130000000000_SAS093001398888e0|15=CNY|21=1|22=5|38=1600|40=2|44=15.0600|48=002213.SZ|50=CICC2|54=1|55=002213.SZ|57=SWAP|59=0|60=20210813-01:30:48|100=SZ|120=USD|207=SZ|10=224|
20210813-01:30:51.458374000 : 8=FIX.4.2|9=229|35=D|34=673|49=SenderCompID|52=20210813-01:30:51.458|56=TargetCompID|1=CICC2|11=130000000000_HAS093001399174e0|15=CNY|21=1|22=5|38=361|40=2|44=105.1100|48=688800.SS|50=CICC2|54=1|55=688800.SS|57=SWAP|59=0|60=20210813-01:30:51|100=SS|120=USD|207=SS|10=064|
20210813-01:30:51.478167000 : 8=FIX.4.2|9=225|35=F|34=674|49=SenderCompID|52=20210813-01:30:51.478|56=TargetCompID|1=CICC2|11=130801080021_SAS093001875327e0|22=5|38=3000|41=130000000000_SAS093001875327e0|48=002213.SZ|50=CICC2|54=1|55=002213.SZ|60=20210813-01:30:51|100=SZ|120=USD|207=SZ|10=226|
20210813-01:30:51.750952000 : 8=FIX.4.2|9=232|35=D|34=675|49=SenderCompID|52=20210813-01:30:51.750|56=TargetCompID|1=CICC2|11=130000000000_SAS093001389268e0|15=CNY|21=1|22=5|38=20000|40=2|44=9.7800|48=000848.SZ|50=CICC2|54=1|55=000848.SZ|57=SWAP|59=0|60=20210813-01:30:51|100=SZ|120=USD|207=SZ|10=211|
20210813-01:30:51.914168000 : 8=FIX.4.2|9=231|35=D|34=676|49=SenderCompID|52=20210813-01:30:51.914|56=TargetCompID|1=CICC2|11=130000000000_SAS093001404629e0|15=CNY|21=1|22=5|38=3800|40=2|44=15.0600|48=002213.SZ|50=CICC2|54=1|55=002213.SZ|57=SWAP|59=0|60=20210813-01:30:51|100=SZ|120=USD|207=SZ|10=144|
20210813-01:30:52.155610000 : 8=FIX.4.2|9=231|35=D|34=677|49=SenderCompID|52=20210813-01:30:52.155|56=TargetCompID|1=CICC2|11=130000000000_SAS093001389298e0|15=CNY|21=1|22=5|38=200|40=2|44=20.2800|48=002816.SZ|50=CICC2|54=1|55=002816.SZ|57=SWAP|59=0|60=20210813-01:30:52|100=SZ|120=USD|207=SZ|10=180|
20210813-01:30:53.013892000 : 8=FIX.4.2|9=233|35=D|34=678|49=SenderCompID|52=20210813-01:30:53.013|56=TargetCompID|1=CICC2|11=130000000000_HAS093001399258e0|15=CNY|21=1|22=5|38=20000|40=2|44=12.3500|48=600348.SS|50=CICC2|54=1|55=600348.SS|57=SWAP|59=0|60=20210813-01:30:53|100=SS|120=USD|207=SS|10=227|
20210813-01:30:53.023678000 : 8=FIX.4.2|9=224|35=F|34=679|49=SenderCompID|52=20210813-01:30:53.023|56=TargetCompID|1=CICC2|11=130801080022_SAS093001388616e0|22=5|38=500|41=130000000000_SAS093001388616e0|48=002816.SZ|50=CICC2|54=1|55=002816.SZ|60=20210813-01:30:53|100=SZ|120=USD|207=SZ|10=193|
20210813-01:30:54.751217000 : 8=FIX.4.2|9=232|35=D|34=680|49=SenderCompID|52=20210813-01:30:54.751|56=TargetCompID|1=CICC2|11=130000000000_SAS093001409710e0|15=CNY|21=1|22=5|38=20000|40=2|44=9.7800|48=000848.SZ|50=CICC2|54=1|55=000848.SZ|57=SWAP|59=0|60=20210813-01:30:54|100=SZ|120=USD|207=SZ|10=199|
20210813-01:30:55.133805000 : 8=FIX.4.2|9=231|35=D|34=681|49=SenderCompID|52=20210813-01:30:55.133|56=TargetCompID|1=CICC2|11=130000000000_SAS093001389426e0|15=CNY|21=1|22=5|38=600|40=2|44=20.2800|48=002816.SZ|50=CICC2|54=1|55=002816.SZ|57=SWAP|59=0|60=20210813-01:30:55|100=SZ|120=USD|207=SZ|10=168|
20210813-01:30:55.431401000 : 8=FIX.4.2|9=225|35=F|34=682|49=SenderCompID|52=20210813-01:30:55.431|56=TargetCompID|1=CICC2|11=130801080023_SAS093001398888e0|22=5|38=1600|41=130000000000_SAS093001398888e0|48=002213.SZ|50=CICC2|54=1|55=002213.SZ|60=20210813-01:30:55|100=SZ|120=USD|207=SZ|10=252|
20210813-01:30:55.436825000 : 8=FIX.4.2|9=225|35=F|34=683|49=SenderCompID|52=20210813-01:30:55.436|56=TargetCompID|1=CICC2|11=130801080024_SAS093001404629e0|22=5|38=3800|41=130000000000_SAS093001404629e0|48=002213.SZ|50=CICC2|54=1|55=002213.SZ|60=20210813-01:30:55|100=SZ|120=USD|207=SZ|10=225|
20210813-01:30:56.319034000 : 8=FIX.4.2|9=233|35=D|34=684|49=SenderCompID|52=20210813-01:30:56.318|56=TargetCompID|1=CICC2|11=130000000000_HAS093001414536e0|15=CNY|21=1|22=5|38=20000|40=2|44=12.3500|48=600348.SS|50=CICC2|54=1|55=600348.SS|57=SWAP|59=0|60=20210813-01:30:56|100=SS|120=USD|207=SS|10=228|
20210813-01:30:57.745323000 : 8=FIX.4.2|9=232|35=D|34=685|49=SenderCompID|52=20210813-01:30:57.745|56=TargetCompID|1=CICC2|11=130000000000_SAS093001404875e0|15=CNY|21=1|22=5|38=20000|40=2|44=9.7800|48=000848.SZ|50=CICC2|54=1|55=000848.SZ|57=SWAP|59=0|60=20210813-01:30:57|100=SZ|120=USD|207=SZ|10=220|
20210813-01:30:57.888585000 : 8=FIX.4.2|9=232|35=D|34=686|49=SenderCompID|52=20210813-01:30:57.888|56=TargetCompID|1=CICC2|11=130000000000_SAS093001389528e0|15=CNY|21=1|22=5|38=6000|40=2|44=15.0600|48=002213.SZ|50=CICC2|54=1|55=002213.SZ|57=SWAP|59=0|60=20210813-01:30:57|100=SZ|120=USD|207=SZ|10=222|
20210813-01:30:58.887936000 : 8=FIX.4.2|9=233|35=D|34=687|49=SenderCompID|52=20210813-01:30:58.887|56=TargetCompID|1=CICC2|11=130000000000_HAS093001419605e0|15=CNY|21=1|22=5|38=20000|40=2|44=12.3500|48=600348.SS|50=CICC2|54=1|55=600348.SS|57=SWAP|59=0|60=20210813-01:30:58|100=SS|120=USD|207=SS|10=250|
20210813-01:30:58.983941000 : 8=FIX.4.2|9=232|35=D|34=688|49=SenderCompID|52=20210813-01:30:58.983|56=TargetCompID|1=CICC2|11=130000000000_HAS093001414632e0|15=CNY|21=1|22=5|38=2281|40=2|44=105.1100|48=688800.SS|50=CICC2|54=1|55=688800.SS|57=SWAP|59=0|60=20210813-01:30:58|100=SS|120=USD|207=SS|10=222|
20210813-01:31:00.753832000 : 8=FIX.4.2|9=232|35=D|34=689|49=SenderCompID|52=20210813-01:31:00.753|56=TargetCompID|1=CICC2|11=130000000000_SAS093101876360e0|15=CNY|21=1|22=5|38=20000|40=2|44=9.7800|48=000848.SZ|50=CICC2|54=1|55=000848.SZ|57=SWAP|59=0|60=20210813-01:31:00|100=SZ|120=USD|207=SZ|10=204|
20210813-01:31:01.947091000 : 8=FIX.4.2|9=233|35=D|34=690|49=SenderCompID|52=20210813-01:31:01.947|56=TargetCompID|1=CICC2|11=130000000000_HAS093101920031e0|15=CNY|21=1|22=5|38=19500|40=2|44=12.3500|48=600348.SS|50=CICC2|54=1|55=600348.SS|57=SWAP|59=0|60=20210813-01:31:01|100=SS|120=USD|207=SS|10=223|
20210813-01:31:02.044398000 : 8=FIX.4.2|9=232|35=D|34=691|49=SenderCompID|52=20210813-01:31:02.044|56=TargetCompID|1=CICC2|11=130000000000_HAS093101920035e0|15=CNY|21=1|22=5|38=567|40=2|44=105.1100|48=688800.SS|50=CICC2|54=1|55=688800.SS|57=SWAP|59=0|60=20210813-01:31:02|100=SS|120=USD|207=SS|10=182|
20210813-01:31:03.799663000 : 8=FIX.4.2|9=232|35=D|34=692|49=SenderCompID|52=20210813-01:31:03.799|56=TargetCompID|1=CICC2|11=130000000000_SAS093101419770e0|15=CNY|21=1|22=5|38=11300|40=2|44=9.7800|48=000848.SZ|50=CICC2|54=1|55=000848.SZ|57=SWAP|59=0|60=20210813-01:31:03|100=SZ|120=USD|207=SZ|10=215|
20210813-01:31:04.238007000 : 8=FIX.4.2|9=231|35=D|34=693|49=SenderCompID|52=20210813-01:31:04.237|56=TargetCompID|1=CICC2|11=130000000000_SAS093101876485e0|15=CNY|21=1|22=5|38=200|40=2|44=20.2800|48=002816.SZ|50=CICC2|54=1|55=002816.SZ|57=SWAP|59=0|60=20210813-01:31:04|100=SZ|120=USD|207=SZ|10=168|
20210813-01:31:04.954456000 : 8=FIX.4.2|9=231|35=D|34=694|49=SenderCompID|52=20210813-01:31:04.954|56=TargetCompID|1=CICC2|11=130000000000_HAS093101389786e0|15=CNY|21=1|22=5|38=100|40=2|44=13.9000|48=600458.SS|50=CICC2|54=1|55=600458.SS|57=SWAP|59=0|60=20210813-01:31:04|100=SS|120=USD|207=SS|10=139|
20210813-01:31:05.048018000 : 8=FIX.4.2|9=232|35=D|34=695|49=SenderCompID|52=20210813-01:31:05.047|56=TargetCompID|1=CICC2|11=130000000000_HAS093101876511e0|15=CNY|21=1|22=5|38=533|40=2|44=105.1100|48=688800.SS|50=CICC2|54=1|55=688800.SS|57=SWAP|59=0|60=20210813-01:31:05|100=SS|120=USD|207=SS|10=198|
20210813-01:31:05.437803000 : 8=FIX.4.2|9=225|35=F|34=696|49=SenderCompID|52=20210813-01:31:05.437|56=TargetCompID|1=CICC2|11=130801080025_SAS093001389528e0|22=5|38=6000|41=130000000000_SAS093001389528e0|48=002213.SZ|50=CICC2|54=1|55=002213.SZ|60=20210813-01:31:05|100=SZ|120=USD|207=SZ|10=238|
20210813-01:31:06.052570000 : 8=FIX.4.2|9=231|35=D|34=697|49=SenderCompID|52=20210813-01:31:06.052|56=TargetCompID|1=CICC2|11=130000000000_HAS093101876546e0|15=CNY|21=1|22=5|38=100|40=2|44=35.3000|48=600141.SS|50=CICC2|54=1|55=600141.SS|57=SWAP|59=0|60=20210813-01:31:06|100=SS|120=USD|207=SS|10=111|
20210813-01:31:06.609110000 : 8=FIX.4.2|9=231|35=D|34=698|49=SenderCompID|52=20210813-01:31:06.609|56=TargetCompID|1=CICC2|11=130000000000_SAS093101389862e0|15=CNY|21=1|22=5|38=100|40=2|44=19.6600|48=000422.SZ|50=CICC2|54=1|55=000422.SZ|57=SWAP|59=0|60=20210813-01:31:06|100=SZ|120=USD|207=SZ|10=152|
20210813-01:31:06.770415000 : 8=FIX.4.2|9=232|35=D|34=699|49=SenderCompID|52=20210813-01:31:06.770|56=TargetCompID|1=CICC2|11=130000000000_SAS093101389874e0|15=CNY|21=1|22=5|38=10300|40=2|44=9.7800|48=000848.SZ|50=CICC2|54=1|55=000848.SZ|57=SWAP|59=0|60=20210813-01:31:06|100=SZ|120=USD|207=SZ|10=227|
20210813-01:31:06.887398000 : 8=FIX.4.2|9=232|35=D|34=700|49=SenderCompID|52=20210813-01:31:06.887|56=TargetCompID|1=CICC2|11=130000000000_SAS093101389885e0|15=CNY|21=1|22=5|38=2400|40=2|44=15.0600|48=002213.SZ|50=CICC2|54=1|55=002213.SZ|57=SWAP|59=0|60=20210813-01:31:06|100=SZ|120=USD|207=SZ|10=207|
20210813-01:31:06.919223000 : 8=FIX.4.2|9=231|35=D|34=701|49=SenderCompID|52=20210813-01:31:06.919|56=TargetCompID|1=CICC2|11=130000000000_SAS093101399808e0|15=CNY|21=1|22=5|38=100|40=2|44=12.5900|48=002286.SZ|50=CICC2|54=1|55=002286.SZ|57=SWAP|59=0|60=20210813-01:31:06|100=SZ|120=USD|207=SZ|10=159|
20210813-01:31:08.016257000 : 8=FIX.4.2|9=224|35=F|34=702|49=SenderCompID|52=20210813-01:31:08.016|56=TargetCompID|1=CICC2|11=130801080026_SAS093101876485e0|22=5|38=200|41=130000000000_SAS093101876485e0|48=002816.SZ|50=CICC2|54=1|55=002816.SZ|60=20210813-01:31:08|100=SZ|120=USD|207=SZ|10=199|
20210813-01:31:08.100772000 : 8=FIX.4.2|9=232|35=D|34=703|49=SenderCompID|52=20210813-01:31:08.100|56=TargetCompID|1=CICC2|11=130000000000_HAS093101950031e0|15=CNY|21=1|22=5|38=245|40=2|44=105.1100|48=688800.SS|50=CICC2|54=1|55=688800.SS|57=SWAP|59=0|60=20210813-01:31:08|100=SS|120=USD|207=SS|10=181|
20210813-01:31:08.865098000 : 8=FIX.4.2|9=233|35=D|34=704|49=SenderCompID|52=20210813-01:31:08.865|56=TargetCompID|1=CICC2|11=130000000000_HAS093101876739e0|15=CNY|21=1|22=5|38=20000|40=2|44=35.3000|48=600141.SS|50=CICC2|54=1|55=600141.SS|57=SWAP|59=0|60=20210813-01:31:08|100=SS|120=USD|207=SS|10=220|
20210813-01:31:09.633729000 : 8=FIX.4.2|9=232|35=D|34=705|49=SenderCompID|52=20210813-01:31:09.633|56=TargetCompID|1=CICC2|11=130000000000_SAS093101985065e0|15=CNY|21=1|22=5|38=8800|40=2|44=19.6600|48=000422.SZ|50=CICC2|54=1|55=000422.SZ|57=SWAP|59=0|60=20210813-01:31:09|100=SZ|120=USD|207=SZ|10=202|
20210813-01:31:09.753310000 : 8=FIX.4.2|9=231|35=D|34=706|49=SenderCompID|52=20210813-01:31:09.753|56=TargetCompID|1=CICC2|11=130000000000_SAS093101990002e0|15=CNY|21=1|22=5|38=6500|40=2|44=9.7800|48=000848.SZ|50=CICC2|54=1|55=000848.SZ|57=SWAP|59=0|60=20210813-01:31:09|100=SZ|120=USD|207=SZ|10=162|
20210813-01:31:09.909527000 : 8=FIX.4.2|9=231|35=D|34=707|49=SenderCompID|52=20210813-01:31:09.909|56=TargetCompID|1=CICC2|11=130000000000_SAS093101876811e0|15=CNY|21=1|22=5|38=300|40=2|44=15.0600|48=002213.SZ|50=CICC2|54=1|55=002213.SZ|57=SWAP|59=0|60=20210813-01:31:09|100=SZ|120=USD|207=SZ|10=154|
20210813-01:31:09.927026000 : 8=FIX.4.2|9=231|35=D|34=708|49=SenderCompID|52=20210813-01:31:09.926|56=TargetCompID|1=CICC2|11=130000000000_SAS093101950153e0|15=CNY|21=1|22=5|38=900|40=2|44=12.5900|48=002286.SZ|50=CICC2|54=1|55=002286.SZ|57=SWAP|59=0|60=20210813-01:31:09|100=SZ|120=USD|207=SZ|10=164|
20210813-01:31:10.159225000 : 8=FIX.4.2|9=231|35=D|34=709|49=SenderCompID|52=20210813-01:31:10.159|56=TargetCompID|1=CICC2|11=130000000000_SAS093101876830e0|15=CNY|21=1|22=5|38=300|40=2|44=20.2800|48=002816.SZ|50=CICC2|54=1|55=002816.SZ|57=SWAP|59=0|60=20210813-01:31:10|100=SZ|120=USD|207=SZ|10=161|
20210813-01:31:10.441829000 : 8=FIX.4.2|9=225|35=F|34=710|49=SenderCompID|52=20210813-01:31:10.441|56=TargetCompID|1=CICC2|11=130801080027_SAS093101389885e0|22=5|38=2400|41=130000000000_SAS093101389885e0|48=002213.SZ|50=CICC2|54=1|55=002213.SZ|60=20210813-01:31:10|100=SZ|120=USD|207=SZ|10=228|
20210813-01:31:10.836234000 : 8=FIX.4.2|9=231|35=D|34=711|49=SenderCompID|52=20210813-01:31:10.836|56=TargetCompID|1=CICC2|11=130000000000_HAS093101990077e0|15=CNY|21=1|22=5|38=400|40=2|44=13.9000|48=600458.SS|50=CICC2|54=1|55=600458.SS|57=SWAP|59=0|60=20210813-01:31:10|100=SS|120=USD|207=SS|10=116|
20210813-01:31:11.806498000 : 8=FIX.4.2|9=233|35=D|34=712|49=SenderCompID|52=20210813-01:31:11.806|56=TargetCompID|1=CICC2|11=130000000000_HAS093101925493e0|15=CNY|21=1|22=5|38=20000|40=2|44=35.3000|48=600141.SS|50=CICC2|54=1|55=600141.SS|57=SWAP|59=0|60=20210813-01:31:11|100=SS|120=USD|207=SS|10=199|
20210813-01:31:12.622603000 : 8=FIX.4.2|9=231|35=D|34=713|49=SenderCompID|52=20210813-01:31:12.622|56=TargetCompID|1=CICC2|11=130000000000_SAS093101985227e0|15=CNY|21=1|22=5|38=3000|40=2|44=19.6600|48=000422.SZ|50=CICC2|54=1|55=000422.SZ|57=SWAP|59=0|60=20210813-01:31:12|100=SZ|120=USD|207=SZ|10=124|
20210813-01:31:12.773559000 : 8=FIX.4.2|9=231|35=D|34=714|49=SenderCompID|52=20210813-01:31:12.773|56=TargetCompID|1=CICC2|11=130000000000_SAS093101950302e0|15=CNY|21=1|22=5|38=8100|40=2|44=9.7800|48=000848.SZ|50=CICC2|54=1|55=000848.SZ|57=SWAP|59=0|60=20210813-01:31:12|100=SZ|120=USD|207=SZ|10=148|
20210813-01:31:12.874864000 : 8=FIX.4.2|9=232|35=D|34=715|49=SenderCompID|52=20210813-01:31:12.874|56=TargetCompID|1=CICC2|11=130000000000_SAS093101920577e0|15=CNY|21=1|22=5|38=4700|40=2|44=15.0600|48=002213.SZ|50=CICC2|54=1|55=002213.SZ|57=SWAP|59=0|60=20210813-01:31:12|100=SZ|120=USD|207=SZ|10=195|
20210813-01:31:13.973752000 : 8=FIX.4.2|9=232|35=D|34=716|49=SenderCompID|52=20210813-01:31:13.973|56=TargetCompID|1=CICC2|11=130000000000_HAS093101925607e0|15=CNY|21=1|22=5|38=826|40=2|44=105.1100|48=688800.SS|50=CICC2|54=1|55=688800.SS|57=SWAP|59=0|60=20210813-01:31:13|100=SS|120=USD|207=SS|10=220|
20210813-01:31:14.979773000 : 8=FIX.4.2|9=233|35=D|34=717|49=SenderCompID|52=20210813-01:31:14.979|56=TargetCompID|1=CICC2|11=130000000000_HAS093101877049e0|15=CNY|21=1|22=5|38=20000|40=2|44=35.3000|48=600141.SS|50=CICC2|54=1|55=600141.SS|57=SWAP|59=0|60=20210813-01:31:14|100=SS|120=USD|207=SS|10=225|
20210813-01:31:15.620923000 : 8=FIX.4.2|9=232|35=D|34=718|49=SenderCompID|52=20210813-01:31:15.620|56=TargetCompID|1=CICC2|11=130000000000_SAS093101877100e0|15=CNY|21=1|22=5|38=4600|40=2|44=19.6600|48=000422.SZ|50=CICC2|54=1|55=000422.SZ|57=SWAP|59=0|60=20210813-01:31:15|100=SZ|120=USD|207=SZ|10=186|
20210813-01:31:15.760428000 : 8=FIX.4.2|9=231|35=D|34=719|49=SenderCompID|52=20210813-01:31:15.760|56=TargetCompID|1=CICC2|11=130000000000_SAS093101950454e0|15=CNY|21=1|22=5|38=9900|40=2|44=9.7800|48=000848.SZ|50=CICC2|54=1|55=000848.SZ|57=SWAP|59=0|60=20210813-01:31:15|100=SZ|120=USD|207=SZ|10=172|
20210813-01:31:15.899568000 : 8=FIX.4.2|9=231|35=D|34=720|49=SenderCompID|52=20210813-01:31:15.899|56=TargetCompID|1=CICC2|11=130000000000_SAS093101920725e0|15=CNY|21=1|22=5|38=400|40=2|44=12.5900|48=002286.SZ|50=CICC2|54=1|55=002286.SZ|57=SWAP|59=0|60=20210813-01:31:15|100=SZ|120=USD|207=SZ|10=157|
20210813-01:31:15.907660000 : 8=FIX.4.2|9=232|35=D|34=721|49=SenderCompID|52=20210813-01:31:15.907|56=TargetCompID|1=CICC2|11=130000000000_SAS093101925693e0|15=CNY|21=1|22=5|38=3200|40=2|44=15.0600|48=002213.SZ|50=CICC2|54=1|55=002213.SZ|57=SWAP|59=0|60=20210813-01:31:15|100=SZ|120=USD|207=SZ|10=193|
20210813-01:31:17.022270000 : 8=FIX.4.2|9=232|35=D|34=722|49=SenderCompID|52=20210813-01:31:17.022|56=TargetCompID|1=CICC2|11=130000000000_HAS093101950508e0|15=CNY|21=1|22=5|38=450|40=2|44=105.1100|48=688800.SS|50=CICC2|54=1|55=688800.SS|57=SWAP|59=0|60=20210813-01:31:17|100=SS|120=USD|207=SS|10=185|
20210813-01:31:17.891332000 : 8=FIX.4.2|9=232|35=D|34=723|49=SenderCompID|52=20210813-01:31:17.891|56=TargetCompID|1=CICC2|11=130000000000_HAS093101980480e0|15=CNY|21=1|22=5|38=3600|40=2|44=35.3000|48=600141.SS|50=CICC2|54=1|55=600141.SS|57=SWAP|59=0|60=20210813-01:31:17|100=SS|120=USD|207=SS|10=168|
20210813-01:31:18.025457000 : 8=FIX.4.2|9=231|35=D|34=724|49=SenderCompID|52=20210813-01:31:18.025|56=TargetCompID|1=CICC2|11=130000000000_SAS093101920791e0|15=CNY|21=1|22=5|38=200|40=2|44=20.2800|48=002816.SZ|50=CICC2|54=1|55=002816.SZ|57=SWAP|59=0|60=20210813-01:31:18|100=SZ|120=USD|207=SZ|10=161|
20210813-01:31:18.611544000 : 8=FIX.4.2|9=232|35=D|34=725|49=SenderCompID|52=20210813-01:31:18.611|56=TargetCompID|1=CICC2|11=130000000000_SAS093101925806e0|15=CNY|21=1|22=5|38=4300|40=2|44=19.6600|48=000422.SZ|50=CICC2|54=1|55=000422.SZ|57=SWAP|59=0|60=20210813-01:31:18|100=SZ|120=USD|207=SZ|10=192|
20210813-01:31:18.767626000 : 8=FIX.4.2|9=231|35=D|34=726|49=SenderCompID|52=20210813-01:31:18.767|56=TargetCompID|1=CICC2|11=130000000000_SAS093101950573e0|15=CNY|21=1|22=5|38=1300|40=2|44=9.7800|48=000848.SZ|50=CICC2|54=1|55=000848.SZ|57=SWAP|59=0|60=20210813-01:31:18|100=SZ|120=USD|207=SZ|10=171|
20210813-01:31:18.880533000 : 8=FIX.4.2|9=232|35=D|34=727|49=SenderCompID|52=20210813-01:31:18.880|56=TargetCompID|1=CICC2|11=130000000000_SAS093101877232e0|15=CNY|21=1|22=5|38=2600|40=2|44=12.5900|48=002286.SZ|50=CICC2|54=1|55=002286.SZ|57=SWAP|59=0|60=20210813-01:31:18|100=SZ|120=USD|207=SZ|10=223|
20210813-01:31:20.443300000 : 8=FIX.4.2|9=225|35=F|34=728|49=SenderCompID|52=20210813-01:31:20.443|56=TargetCompID|1=CICC2|11=130801080028_SAS093101925693e0|22=5|38=3200|41=130000000000_SAS093101925693e0|48=002213.SZ|50=CICC2|54=1|55=002213.SZ|60=20210813-01:31:20|100=SZ|120=USD|207=SZ|10=227|
20210813-01:31:20.444124000 : 8=FIX.4.2|9=225|35=F|34=729|49=SenderCompID|52=20210813-01:31:20.444|56=TargetCompID|1=CICC2|11=130801080029_SAS093101920577e0|22=5|38=4700|41=130000000000_SAS093101920577e0|48=002213.SZ|50=CICC2|54=1|55=002213.SZ|60=20210813-01:31:20|100=SZ|120=USD|207=SZ|10=228|
20210813-01:31:21.612069000 : 8=FIX.4.2|9=232|35=D|34=730|49=SenderCompID|52=20210813-01:31:21.612|56=TargetCompID|1=CICC2|11=130000000000_SAS093101925933e0|15=CNY|21=1|22=5|38=7400|40=2|44=19.6600|48=000422.SZ|50=CICC2|54=1|55=000422.SZ|57=SWAP|59=0|60=20210813-01:31:21|100=SZ|120=USD|207=SZ|10=182|
20210813-01:31:21.752649000 : 8=FIX.4.2|9=232|35=D|34=731|49=SenderCompID|52=20210813-01:31:21.752|56=TargetCompID|1=CICC2|11=130000000000_SAS093101950694e0|15=CNY|21=1|22=5|38=20000|40=2|44=9.7800|48=000848.SZ|50=CICC2|54=1|55=000848.SZ|57=SWAP|59=0|60=20210813-01:31:21|100=SZ|120=USD|207=SZ|10=200|
20210813-01:31:21.930212000 : 8=FIX.4.2|9=232|35=D|34=732|49=SenderCompID|52=20210813-01:31:21.930|56=TargetCompID|1=CICC2|11=130000000000_SAS093101920968e0|15=CNY|21=1|22=5|38=2500|40=2|44=12.5900|48=002286.SZ|50=CICC2|54=1|55=002286.SZ|57=SWAP|59=0|60=20210813-01:31:21|100=SZ|120=USD|207=SZ|10=207|
20210813-01:31:23.010724000 : 8=FIX.4.2|9=231|35=D|34=733|49=SenderCompID|52=20210813-01:31:23.010|56=TargetCompID|1=CICC2|11=130000000000_HAS093101990593e0|15=CNY|21=1|22=5|38=400|40=2|44=13.9000|48=600458.SS|50=CICC2|54=1|55=600458.SS|57=SWAP|59=0|60=20210813-01:31:23|100=SS|120=USD|207=SS|10=116|
20210813-01:31:24.057492000 : 8=FIX.4.2|9=224|35=F|34=734|49=SenderCompID|52=20210813-01:31:24.057|56=TargetCompID|1=CICC2|11=130801080030_HAS093101950508e0|22=5|38=450|41=130000000000_HAS093101950508e0|48=688800.SS|50=CICC2|54=1|55=688800.SS|60=20210813-01:31:24|100=SS|120=USD|207=SS|10=161|
20210813-01:31:24.593429000 : 8=FIX.4.2|9=232|35=D|34=735|49=SenderCompID|52=20210813-01:31:24.593|56=TargetCompID|1=CICC2|11=130000000000_SAS093101980782e0|15=CNY|21=1|22=5|38=7300|40=2|44=19.6600|48=000422.SZ|50=CICC2|54=1|55=000422.SZ|57=SWAP|59=0|60=20210813-01:31:24|100=SZ|120=USD|207=SZ|10=201|
20210813-01:31:24.885530000 : 8=FIX.4.2|9=232|35=D|34=736|49=SenderCompID|52=20210813-01:31:24.885|56=TargetCompID|1=CICC2|11=130000000000_SAS093101877493e0|15=CNY|21=1|22=5|38=5600|40=2|44=15.0600|48=002213.SZ|50=CICC2|54=1|55=002213.SZ|57=SWAP|59=0|60=20210813-01:31:24|100=SZ|120=USD|207=SZ|10=216|
20210813-01:31:26.164806000 : 8=FIX.4.2|9=232|35=D|34=737|49=SenderCompID|52=20210813-01:31:26.164|56=TargetCompID|1=CICC2|11=130000000000_HAS093101980860e0|15=CNY|21=1|22=5|38=611|40=2|44=105.1100|48=688800.SS|50=CICC2|54=1|55=688800.SS|57=SWAP|59=0|60=20210813-01:31:26|100=SS|120=USD|207=SS|10=211|
20210813-01:31:27.577426000 : 8=FIX.4.2|9=231|35=D|34=738|49=SenderCompID|52=20210813-01:31:27.577|56=TargetCompID|1=CICC2|11=130000000000_SAS093101877616e0|15=CNY|21=1|22=5|38=3900|40=2|44=19.6600|48=000422.SZ|50=CICC2|54=1|55=000422.SZ|57=SWAP|59=0|60=20210813-01:31:27|100=SZ|120=USD|207=SZ|10=162|
20210813-01:31:27.912339000 : 8=FIX.4.2|9=230|35=D|34=739|49=SenderCompID|52=20210813-01:31:27.912|56=TargetCompID|1=CICC2|11=130000000000_SAS093101990837e0|15=CNY|21=1|22=5|38=400|40=2|44=12.5900|48=002286.SZ|50=CICC2|54=1|55=002286.SZ|57=SWAP|59=0|60=20210813-01:31:27|100=SZ|120=USD|207=SZ|10=120|
20210813-01:31:28.028267000 : 8=FIX.4.2|9=231|35=D|34=740|49=SenderCompID|52=20210813-01:31:28.028|56=TargetCompID|1=CICC2|11=130000000000_SAS093101950996e0|15=CNY|21=1|22=5|38=200|40=2|44=20.2800|48=002816.SZ|50=CICC2|54=1|55=002816.SZ|57=SWAP|59=0|60=20210813-01:31:28|100=SZ|120=USD|207=SZ|10=177|
20210813-01:31:29.204013000 : 8=FIX.4.2|9=232|35=D|34=741|49=SenderCompID|52=20210813-01:31:29.203|56=TargetCompID|1=CICC2|11=130000000000_HAS093101990907e0|15=CNY|21=1|22=5|38=539|40=2|44=105.1100|48=688800.SS|50=CICC2|54=1|55=688800.SS|57=SWAP|59=0|60=20210813-01:31:29|100=SS|120=USD|207=SS|10=218|
20210813-01:31:30.495741000 : 8=FIX.4.2|9=225|35=F|34=742|49=SenderCompID|52=20210813-01:31:30.495|56=TargetCompID|1=CICC2|11=130801080031_SAS093101877493e0|22=5|38=5600|41=130000000000_SAS093101877493e0|48=002213.SZ|50=CICC2|54=1|55=002213.SZ|60=20210813-01:31:30|100=SZ|120=USD|207=SZ|10=240|
20210813-01:31:30.605649000 : 8=FIX.4.2|9=232|35=D|34=743|49=SenderCompID|52=20210813-01:31:30.605|56=TargetCompID|1=CICC2|11=130000000000_SAS093101981135e0|15=CNY|21=1|22=5|38=9200|40=2|44=19.6600|48=000422.SZ|50=CICC2|54=1|55=000422.SZ|57=SWAP|59=0|60=20210813-01:31:30|100=SZ|120=USD|207=SZ|10=181|
20210813-01:31:30.918246000 : 8=FIX.4.2|9=231|35=D|34=744|49=SenderCompID|52=20210813-01:31:30.918|56=TargetCompID|1=CICC2|11=130000000000_SAS093101877879e0|15=CNY|21=1|22=5|38=700|40=2|44=12.5900|48=002286.SZ|50=CICC2|54=1|55=002286.SZ|57=SWAP|59=0|60=20210813-01:31:30|100=SZ|120=USD|207=SZ|10=179|
20210813-01:31:33.605982000 : 8=FIX.4.2|9=232|35=D|34=745|49=SenderCompID|52=20210813-01:31:33.605|56=TargetCompID|1=CICC2|11=130000000000_SAS093101878089e0|15=CNY|21=1|22=5|38=4500|40=2|44=19.6600|48=000422.SZ|50=CICC2|54=1|55=000422.SZ|57=SWAP|59=0|60=20210813-01:31:33|100=SZ|120=USD|207=SZ|10=200|
20210813-01:31:33.868797000 : 8=FIX.4.2|9=232|35=D|34=746|49=SenderCompID|52=20210813-01:31:33.868|56=TargetCompID|1=CICC2|11=130000000000_SAS093101986403e0|15=CNY|21=1|22=5|38=2900|40=2|44=15.0600|48=002213.SZ|50=CICC2|54=1|55=002213.SZ|57=SWAP|59=0|60=20210813-01:31:33|100=SZ|120=USD|207=SZ|10=214|
20210813-01:31:34.985168000 : 8=FIX.4.2|9=232|35=D|34=747|49=SenderCompID|52=20210813-01:31:34.985|56=TargetCompID|1=CICC2|11=130000000000_HAS093101921838e0|15=CNY|21=1|22=5|38=2200|40=2|44=13.9000|48=600458.SS|50=CICC2|54=1|55=600458.SS|57=SWAP|59=0|60=20210813-01:31:34|100=SS|120=USD|207=SS|10=192|
20210813-01:31:35.050826000 : 8=FIX.4.2|9=232|35=D|34=748|49=SenderCompID|52=20210813-01:31:35.050|56=TargetCompID|1=CICC2|11=130000000000_HAS093101921840e0|15=CNY|21=1|22=5|38=311|40=2|44=105.1100|48=688800.SS|50=CICC2|54=1|55=688800.SS|57=SWAP|59=0|60=20210813-01:31:35|100=SS|120=USD|207=SS|10=193|
20210813-01:31:36.603215000 : 8=FIX.4.2|9=232|35=D|34=749|49=SenderCompID|52=20210813-01:31:36.603|56=TargetCompID|1=CICC2|11=130000000000_SAS093101921938e0|15=CNY|21=1|22=5|38=2600|40=2|44=19.6600|48=000422.SZ|50=CICC2|54=1|55=000422.SZ|57=SWAP|59=0|60=20210813-01:31:36|100=SZ|120=USD|207=SZ|10=198|
20210813-01:31:36.933067000 : 8=FIX.4.2|9=230|35=D|34=750|49=SenderCompID|52=20210813-01:31:36.932|56=TargetCompID|1=CICC2|11=130000000000_SAS093101921979e0|15=CNY|21=1|22=5|38=700|40=2|44=15.0600|48=002213.SZ|50=CICC2|54=1|55=002213.SZ|57=SWAP|59=0|60=20210813-01:31:36|100=SZ|120=USD|207=SZ|10=106|
20210813-01:31:36.938885000 : 8=FIX.4.2|9=231|35=D|34=751|49=SenderCompID|52=20210813-01:31:36.938|56=TargetCompID|1=CICC2|11=130000000000_SAS093101921981e0|15=CNY|21=1|22=5|38=700|40=2|44=12.5900|48=002286.SZ|50=CICC2|54=1|55=002286.SZ|57=SWAP|59=0|60=20210813-01:31:36|100=SZ|120=USD|207=SZ|10=174|
20210813-01:31:38.037760000 : 8=FIX.4.2|9=231|35=D|34=752|49=SenderCompID|52=20210813-01:31:38.037|56=TargetCompID|1=CICC2|11=130000000000_SAS093101991640e0|15=CNY|21=1|22=5|38=200|40=2|44=20.2800|48=002816.SZ|50=CICC2|54=1|55=002816.SZ|57=SWAP|59=0|60=20210813-01:31:38|100=SZ|120=USD|207=SZ|10=168|
20210813-01:31:38.089885000 : 8=FIX.4.2|9=232|35=D|34=753|49=SenderCompID|52=20210813-01:31:38.089|56=TargetCompID|1=CICC2|11=130000000000_HAS093101986741e0|15=CNY|21=1|22=5|38=470|40=2|44=105.1100|48=688800.SS|50=CICC2|54=1|55=688800.SS|57=SWAP|59=0|60=20210813-01:31:38|100=SS|120=USD|207=SS|10=227|
20210813-01:31:39.587688000 : 8=FIX.4.2|9=232|35=D|34=754|49=SenderCompID|52=20210813-01:31:39.587|56=TargetCompID|1=CICC2|11=130000000000_SAS093101991721e0|15=CNY|21=1|22=5|38=2900|40=2|44=19.6600|48=000422.SZ|50=CICC2|54=1|55=000422.SZ|57=SWAP|59=0|60=20210813-01:31:39|100=SZ|120=USD|207=SZ|10=211|
20210813-01:31:39.874769000 : 8=FIX.4.2|9=231|35=D|34=755|49=SenderCompID|52=20210813-01:31:39.874|56=TargetCompID|1=CICC2|11=130000000000_SAS093101986856e0|15=CNY|21=1|22=5|38=1400|40=2|44=15.0600|48=002213.SZ|50=CICC2|54=1|55=002213.SZ|57=SWAP|59=0|60=20210813-01:31:39|100=SZ|120=USD|207=SZ|10=174|
20210813-01:31:39.903095000 : 8=FIX.4.2|9=231|35=D|34=756|49=SenderCompID|52=20210813-01:31:39.902|56=TargetCompID|1=CICC2|11=130000000000_SAS093101927163e0|15=CNY|21=1|22=5|38=400|40=2|44=12.5900|48=002286.SZ|50=CICC2|54=1|55=002286.SZ|57=SWAP|59=0|60=20210813-01:31:39|100=SZ|120=USD|207=SZ|10=171|
20210813-01:31:40.456933000 : 8=FIX.4.2|9=225|35=F|34=757|49=SenderCompID|52=20210813-01:31:40.456|56=TargetCompID|1=CICC2|11=130801080032_SAS093101986403e0|22=5|38=2900|41=130000000000_SAS093101986403e0|48=002213.SZ|50=CICC2|54=1|55=002213.SZ|60=20210813-01:31:40|100=SZ|120=USD|207=SZ|10=230|
20210813-01:31:41.133212000 : 8=FIX.4.2|9=232|35=D|34=758|49=SenderCompID|52=20210813-01:31:41.133|56=TargetCompID|1=CICC2|11=130000000000_HAS093101878659e0|15=CNY|21=1|22=5|38=210|40=2|44=105.1100|48=688800.SS|50=CICC2|54=1|55=688800.SS|57=SWAP|59=0|60=20210813-01:31:41|100=SS|120=USD|207=SS|10=202|
20210813-01:31:42.637410000 : 8=FIX.4.2|9=232|35=D|34=759|49=SenderCompID|52=20210813-01:31:42.637|56=TargetCompID|1=CICC2|11=130000000000_SAS093101952110e0|15=CNY|21=1|22=5|38=4600|40=2|44=19.6600|48=000422.SZ|50=CICC2|54=1|55=000422.SZ|57=SWAP|59=0|60=20210813-01:31:42|100=SZ|120=USD|207=SZ|10=188|
20210813-01:31:42.898072000 : 8=FIX.4.2|9=232|35=D|34=760|49=SenderCompID|52=20210813-01:31:42.898|56=TargetCompID|1=CICC2|11=130000000000_SAS093101922406e0|15=CNY|21=1|22=5|38=2200|40=2|44=15.0600|48=002213.SZ|50=CICC2|54=1|55=002213.SZ|57=SWAP|59=0|60=20210813-01:31:42|100=SZ|120=USD|207=SZ|10=198|
20210813-01:31:44.056264000 : 8=FIX.4.2|9=224|35=F|34=762|49=SenderCompID|52=20210813-01:31:44.056|56=TargetCompID|1=CICC2|11=130801080033_HAS093101921840e0|22=5|38=311|41=130000000000_HAS093101921840e0|48=688800.SS|50=CICC2|54=1|55=688800.SS|60=20210813-01:31:44|100=SS|120=USD|207=SS|10=158|
20210813-01:31:45.605040000 : 8=FIX.4.2|9=231|35=D|34=763|49=SenderCompID|52=20210813-01:31:45.604|56=TargetCompID|1=CICC2|11=130000000000_SAS093101922577e0|15=CNY|21=1|22=5|38=200|40=2|44=19.6600|48=000422.SZ|50=CICC2|54=1|55=000422.SZ|57=SWAP|59=0|60=20210813-01:31:45|100=SZ|120=USD|207=SZ|10=141|
20210813-01:31:45.922333000 : 8=FIX.4.2|9=232|35=D|34=764|49=SenderCompID|52=20210813-01:31:45.922|56=TargetCompID|1=CICC2|11=130000000000_SAS093101878999e0|15=CNY|21=1|22=5|38=1300|40=2|44=15.0600|48=002213.SZ|50=CICC2|54=1|55=002213.SZ|57=SWAP|59=0|60=20210813-01:31:45|100=SZ|120=USD|207=SZ|10=223|
20210813-01:31:45.926745000 : 8=FIX.4.2|9=231|35=D|34=765|49=SenderCompID|52=20210813-01:31:45.926|56=TargetCompID|1=CICC2|11=130000000000_SAS093101922613e0|15=CNY|21=1|22=5|38=400|40=2|44=12.5900|48=002286.SZ|50=CICC2|54=1|55=002286.SZ|57=SWAP|59=0|60=20210813-01:31:45|100=SZ|120=USD|207=SZ|10=166|
20210813-01:31:46.178859000 : 8=FIX.4.2|9=231|35=D|34=766|49=SenderCompID|52=20210813-01:31:46.178|56=TargetCompID|1=CICC2|11=130000000000_SAS093101992219e0|15=CNY|21=1|22=5|38=200|40=2|44=20.2800|48=002816.SZ|50=CICC2|54=1|55=002816.SZ|57=SWAP|59=0|60=20210813-01:31:46|100=SZ|120=USD|207=SZ|10=180|
20210813-01:31:46.909135000 : 8=FIX.4.2|9=230|35=D|34=767|49=SenderCompID|52=20210813-01:31:46.909|56=TargetCompID|1=CICC2|11=130000000000_HAS093101879082e0|15=CNY|21=1|22=5|38=2604|40=2|44=105.1100|48=688800.SS|50=CICC2|54=1|55=688800.SS|57=SWAP|59=0|60=20210813-01:31:46|100=SS|120=USD|207=SS|10=126|
20210813-01:31:48.897865000 : 8=FIX.4.2|9=231|35=D|34=768|49=SenderCompID|52=20210813-01:31:48.897|56=TargetCompID|1=CICC2|11=130000000000_SAS093101992384e0|15=CNY|21=1|22=5|38=400|40=2|44=15.0600|48=002213.SZ|50=CICC2|54=1|55=002213.SZ|57=SWAP|59=0|60=20210813-01:31:48|100=SZ|120=USD|207=SZ|10=180|
20210813-01:31:50.128735000 : 8=FIX.4.2|9=231|35=D|34=769|49=SenderCompID|52=20210813-01:31:50.128|56=TargetCompID|1=CICC2|11=130000000000_HAS093101992471e0|15=CNY|21=1|22=5|38=300|40=2|44=13.9000|48=600458.SS|50=CICC2|54=1|55=600458.SS|57=SWAP|59=0|60=20210813-01:31:50|100=SS|120=USD|207=SS|10=134|
20210813-01:31:50.237284000 : 8=FIX.4.2|9=232|35=D|34=770|49=SenderCompID|52=20210813-01:31:50.237|56=TargetCompID|1=CICC2|11=130000000000_HAS093101987578e0|15=CNY|21=1|22=5|38=1300|40=2|44=105.1100|48=688800.SS|50=CICC2|54=1|55=688800.SS|57=SWAP|59=0|60=20210813-01:31:50|100=SS|120=USD|207=SS|10=207|
20210813-01:31:51.864474000 : 8=FIX.4.2|9=232|35=D|34=771|49=SenderCompID|52=20210813-01:31:51.864|56=TargetCompID|1=CICC2|11=130000000000_SAS093101982682e0|15=CNY|21=1|22=5|38=1000|40=2|44=15.0600|48=002213.SZ|50=CICC2|54=1|55=002213.SZ|57=SWAP|59=0|60=20210813-01:31:51|100=SZ|120=USD|207=SZ|10=202|
20210813-01:31:51.905691000 : 8=FIX.4.2|9=232|35=D|34=772|49=SenderCompID|52=20210813-01:31:51.905|56=TargetCompID|1=CICC2|11=130000000000_SAS093101923029e0|15=CNY|21=1|22=5|38=1700|40=2|44=12.5900|48=002286.SZ|50=CICC2|54=1|55=002286.SZ|57=SWAP|59=0|60=20210813-01:31:51|100=SZ|120=USD|207=SZ|10=205|
20210813-01:31:52.405541000 : 8=FIX.4.2|9=230|35=D|34=773|49=SenderCompID|52=20210813-01:31:52.405|56=TargetCompID|1=CICC2|11=130000000000_SAS093101987757e0|15=CNY|21=1|22=5|38=100|40=2|44=5.9100|48=300510.SZ|50=CICC2|54=2|55=300510.SZ|57=SWAP|59=0|60=20210813-01:31:52|100=SZ|120=USD|207=SZ|10=114|
20210813-01:31:54.875428000 : 8=FIX.4.2|9=232|35=D|34=774|49=SenderCompID|52=20210813-01:31:54.875|56=TargetCompID|1=CICC2|11=130000000000_SAS093101879620e0|15=CNY|21=1|22=5|38=1000|40=2|44=15.0600|48=002213.SZ|50=CICC2|54=1|55=002213.SZ|57=SWAP|59=0|60=20210813-01:31:54|100=SZ|120=USD|207=SZ|10=210|
20210813-01:31:54.906180000 : 8=FIX.4.2|9=232|35=D|34=775|49=SenderCompID|52=20210813-01:31:54.906|56=TargetCompID|1=CICC2|11=130000000000_SAS093101982886e0|15=CNY|21=1|22=5|38=1200|40=2|44=12.5900|48=002286.SZ|50=CICC2|54=1|55=002286.SZ|57=SWAP|59=0|60=20210813-01:31:54|100=SZ|120=USD|207=SZ|10=231|
20210813-01:31:55.403320000 : 8=FIX.4.2|9=232|35=D|34=776|49=SenderCompID|52=20210813-01:31:55.403|56=TargetCompID|1=CICC2|11=130000000000_SAS093101992858e0|15=CNY|21=1|22=5|38=54400|40=2|44=5.9100|48=300510.SZ|50=CICC2|54=2|55=300510.SZ|57=SWAP|59=0|60=20210813-01:31:55|100=SZ|120=USD|207=SZ|10=232|
20210813-01:31:57.894144000 : 8=FIX.4.2|9=231|35=D|34=777|49=SenderCompID|52=20210813-01:31:57.894|56=TargetCompID|1=CICC2|11=130000000000_SAS093101988104e0|15=CNY|21=1|22=5|38=700|40=2|44=12.5900|48=002286.SZ|50=CICC2|54=1|55=002286.SZ|57=SWAP|59=0|60=20210813-01:31:57|100=SZ|120=USD|207=SZ|10=189|
20210813-01:31:58.032330000 : 8=FIX.4.2|9=231|35=D|34=778|49=SenderCompID|52=20210813-01:31:58.032|56=TargetCompID|1=CICC2|11=130000000000_SAS093101953179e0|15=CNY|21=1|22=5|38=200|40=2|44=20.2800|48=002816.SZ|50=CICC2|54=1|55=002816.SZ|57=SWAP|59=0|60=20210813-01:31:58|100=SZ|120=USD|207=SZ|10=182|
20210813-01:31:58.420740000 : 8=FIX.4.2|9=232|35=D|34=779|49=SenderCompID|52=20210813-01:31:58.420|56=TargetCompID|1=CICC2|11=130000000000_SAS093101928466e0|15=CNY|21=1|22=5|38=54400|40=2|44=5.9100|48=300510.SZ|50=CICC2|54=2|55=300510.SZ|57=SWAP|59=0|60=20210813-01:31:58|100=SZ|120=USD|207=SZ|10=234|
20210813-01:31:59.164928000 : 8=FIX.4.2|9=231|35=D|34=780|49=SenderCompID|52=20210813-01:31:59.164|56=TargetCompID|1=CICC2|11=130000000000_HAS093101928508e0|15=CNY|21=1|22=5|38=700|40=2|44=13.9000|48=600458.SS|50=CICC2|54=1|55=600458.SS|57=SWAP|59=0|60=20210813-01:31:59|100=SS|120=USD|207=SS|10=146|
20210813-01:32:00.448227000 : 8=FIX.4.2|9=225|35=F|34=781|49=SenderCompID|52=20210813-01:32:00.448|56=TargetCompID|1=CICC2|11=130801080034_SAS093101922406e0|22=5|38=2200|41=130000000000_SAS093101922406e0|48=002213.SZ|50=CICC2|54=1|55=002213.SZ|60=20210813-01:32:00|100=SZ|120=USD|207=SZ|10=203|
20210813-01:32:00.455778000 : 8=FIX.4.2|9=225|35=F|34=782|49=SenderCompID|52=20210813-01:32:00.455|56=TargetCompID|1=CICC2|11=130801080035_SAS093101878999e0|22=5|38=1300|41=130000000000_SAS093101878999e0|48=002213.SZ|50=CICC2|54=1|55=002213.SZ|60=20210813-01:32:00|100=SZ|120=USD|207=SZ|10=001|
20210813-01:32:00.467788000 : 8=FIX.4.2|9=225|35=F|34=783|49=SenderCompID|52=20210813-01:32:00.467|56=TargetCompID|1=CICC2|11=130801080036_SAS093101879620e0|22=5|38=1000|41=130000000000_SAS093101879620e0|48=002213.SZ|50=CICC2|54=1|55=002213.SZ|60=20210813-01:32:00|100=SZ|120=USD|207=SZ|10=223|
20210813-01:32:00.467903000 : 8=FIX.4.2|9=224|35=F|34=784|49=SenderCompID|52=20210813-01:32:00.467|56=TargetCompID|1=CICC2|11=130801080037_SAS093101992384e0|22=5|38=400|41=130000000000_SAS093101992384e0|48=002213.SZ|50=CICC2|54=1|55=002213.SZ|60=20210813-01:32:00|100=SZ|120=USD|207=SZ|10=185|
20210813-01:32:00.487901000 : 8=FIX.4.2|9=225|35=F|34=785|49=SenderCompID|52=20210813-01:32:00.487|56=TargetCompID|1=CICC2|11=130801080038_SAS093101982682e0|22=5|38=1000|41=130000000000_SAS093101982682e0|48=002213.SZ|50=CICC2|54=1|55=002213.SZ|60=20210813-01:32:00|100=SZ|120=USD|207=SZ|10=235|
20210813-01:32:00.700045000 : 8=FIX.4.2|9=230|35=D|34=786|49=SenderCompID|52=20210813-01:32:00.699|56=TargetCompID|1=CICC2|11=130000000000_SAS093201928634e0|15=CNY|21=1|22=5|38=100|40=2|44=13.0800|48=000625.SZ|50=CICC2|54=1|55=000625.SZ|57=SWAP|59=0|60=20210813-01:32:00|100=SZ|120=USD|207=SZ|10=108|
20210813-01:32:00.851621000 : 8=FIX.4.2|9=231|35=D|34=787|49=SenderCompID|52=20210813-01:32:00.851|56=TargetCompID|1=CICC2|11=130000000000_SAS093201923661e0|15=CNY|21=1|22=5|38=100|40=2|44=10.4500|48=002126.SZ|50=CICC2|54=1|55=002126.SZ|57=SWAP|59=0|60=20210813-01:32:00|100=SZ|120=USD|207=SZ|10=142|
20210813-01:32:00.882694000 : 8=FIX.4.2|9=232|35=D|34=788|49=SenderCompID|52=20210813-01:32:00.882|56=TargetCompID|1=CICC2|11=130000000000_SAS093201928650e0|15=CNY|21=1|22=5|38=1300|40=2|44=15.0600|48=002213.SZ|50=CICC2|54=1|55=002213.SZ|57=SWAP|59=0|60=20210813-01:32:00|100=SZ|120=USD|207=SZ|10=200|
20210813-01:32:01.484778000 : 8=FIX.4.2|9=232|35=D|34=789|49=SenderCompID|52=20210813-01:32:01.484|56=TargetCompID|1=CICC2|11=130000000000_SAS093201953479e0|15=CNY|21=1|22=5|38=39600|40=2|44=5.9100|48=300510.SZ|50=CICC2|54=2|55=300510.SZ|57=SWAP|59=0|60=20210813-01:32:01|100=SZ|120=USD|207=SZ|10=230|
20210813-01:32:01.505961000 : 8=FIX.4.2|9=231|35=D|34=790|49=SenderCompID|52=20210813-01:32:01.505|56=TargetCompID|1=CICC2|11=130000000000_SAS093201928737e0|15=CNY|21=1|22=5|38=100|40=2|44=30.6100|48=300639.SZ|50=CICC2|54=1|55=300639.SZ|57=SWAP|59=0|60=20210813-01:32:01|100=SZ|120=USD|207=SZ|10=161|
20210813-01:32:01.536620000 : 8=FIX.4.2|9=230|35=D|34=791|49=SenderCompID|52=20210813-01:32:01.536|56=TargetCompID|1=CICC2|11=130000000000_SAS093202035151e0|15=CNY|21=1|22=5|38=100|40=2|44=34.2500|48=300655.SZ|50=CICC2|54=1|55=300655.SZ|57=SWAP|59=0|60=20210813-01:32:01|100=SZ|120=USD|207=SZ|10=096|
20210813-01:32:01.995921000 : 8=FIX.4.2|9=231|35=D|34=792|49=SenderCompID|52=20210813-01:32:01.995|56=TargetCompID|1=CICC2|11=130000000000_HAS093201988452e0|15=CNY|21=1|22=5|38=500|40=2|44=13.9000|48=600458.SS|50=CICC2|54=1|55=600458.SS|57=SWAP|59=0|60=20210813-01:32:01|100=SS|120=USD|207=SS|10=142|
20210813-01:32:03.030393000 : 8=FIX.4.2|9=224|35=F|34=793|49=SenderCompID|52=20210813-01:32:03.030|56=TargetCompID|1=CICC2|11=130801080039_SAS093101992219e0|22=5|38=200|41=130000000000_SAS093101992219e0|48=002816.SZ|50=CICC2|54=1|55=002816.SZ|60=20210813-01:32:03|100=SZ|120=USD|207=SZ|10=189|
20210813-01:32:03.036535000 : 8=FIX.4.2|9=224|35=F|34=794|49=SenderCompID|52=20210813-01:32:03.036|56=TargetCompID|1=CICC2|11=130801080040_SAS093101991640e0|22=5|38=200|41=130000000000_SAS093101991640e0|48=002816.SZ|50=CICC2|54=1|55=002816.SZ|60=20210813-01:32:03|100=SZ|120=USD|207=SZ|10=182|
20210813-01:32:03.902981000 : 8=FIX.4.2|9=233|35=D|34=795|49=SenderCompID|52=20210813-01:32:03.902|56=TargetCompID|1=CICC2|11=130000000000_SAS093201953707e0|15=CNY|21=1|22=5|38=13100|40=2|44=13.0800|48=000625.SZ|50=CICC2|54=1|55=000625.SZ|57=SWAP|59=0|60=20210813-01:32:03|100=SZ|120=USD|207=SZ|10=002|
20210813-01:32:04.020716000 : 8=FIX.4.2|9=231|35=D|34=796|49=SenderCompID|52=20210813-01:32:04.020|56=TargetCompID|1=CICC2|11=130000000000_SAS093201983643e0|15=CNY|21=1|22=5|38=400|40=2|44=10.4500|48=002126.SZ|50=CICC2|54=1|55=002126.SZ|57=SWAP|59=0|60=20210813-01:32:04|100=SZ|120=USD|207=SZ|10=147|
20210813-01:32:04.028208000 : 8=FIX.4.2|9=232|35=D|34=797|49=SenderCompID|52=20210813-01:32:04.028|56=TargetCompID|1=CICC2|11=130000000000_SAS093201953719e0|15=CNY|21=1|22=5|38=1100|40=2|44=12.5900|48=002286.SZ|50=CICC2|54=1|55=002286.SZ|57=SWAP|59=0|60=20210813-01:32:04|100=SZ|120=USD|207=SZ|10=213|
20210813-01:32:04.033086000 : 8=FIX.4.2|9=232|35=D|34=798|49=SenderCompID|52=20210813-01:32:04.033|56=TargetCompID|1=CICC2|11=130000000000_SAS093202035383e0|15=CNY|21=1|22=5|38=6600|40=2|44=15.0600|48=002213.SZ|50=CICC2|54=1|55=002213.SZ|57=SWAP|59=0|60=20210813-01:32:04|100=SZ|120=USD|207=SZ|10=198|
20210813-01:32:04.425412000 : 8=FIX.4.2|9=231|35=D|34=799|49=SenderCompID|52=20210813-01:32:04.425|56=TargetCompID|1=CICC2|11=130000000000_SAS093201988706e0|15=CNY|21=1|22=5|38=600|40=2|44=20.2800|48=002816.SZ|50=CICC2|54=1|55=002816.SZ|57=SWAP|59=0|60=20210813-01:32:04|100=SZ|120=USD|207=SZ|10=188|
20210813-01:32:04.969661000 : 8=FIX.4.2|9=232|35=D|34=800|49=SenderCompID|52=20210813-01:32:04.969|56=TargetCompID|1=CICC2|11=130000000000_SAS093201983755e0|15=CNY|21=1|22=5|38=29500|40=2|44=5.9100|48=300510.SZ|50=CICC2|54=2|55=300510.SZ|57=SWAP|59=0|60=20210813-01:32:04|100=SZ|120=USD|207=SZ|10=225|
20210813-01:32:04.978410000 : 8=FIX.4.2|9=231|35=D|34=801|49=SenderCompID|52=20210813-01:32:04.978|56=TargetCompID|1=CICC2|11=130000000000_SAS093201929091e0|15=CNY|21=1|22=5|38=100|40=2|44=34.2500|48=300655.SZ|50=CICC2|54=1|55=300655.SZ|57=SWAP|59=0|60=20210813-01:32:04|100=SZ|120=USD|207=SZ|10=171|
20210813-01:32:04.985782000 : 8=FIX.4.2|9=231|35=D|34=802|49=SenderCompID|52=20210813-01:32:04.985|56=TargetCompID|1=CICC2|11=130000000000_SAS093202035505e0|15=CNY|21=1|22=5|38=900|40=2|44=30.6100|48=300639.SZ|50=CICC2|54=1|55=300639.SZ|57=SWAP|59=0|60=20210813-01:32:04|100=SZ|120=USD|207=SZ|10=163|
20210813-01:32:06.265533000 : 8=FIX.4.2|9=231|35=D|34=803|49=SenderCompID|52=20210813-01:32:06.265|56=TargetCompID|1=CICC2|11=130000000000_HAS093201993790e0|15=CNY|21=1|22=5|38=400|40=2|44=13.9000|48=600458.SS|50=CICC2|54=1|55=600458.SS|57=SWAP|59=0|60=20210813-01:32:06|100=SS|120=USD|207=SS|10=135|
20210813-01:32:07.873188000 : 8=FIX.4.2|9=231|35=D|34=804|49=SenderCompID|52=20210813-01:32:07.873|56=TargetCompID|1=CICC2|11=130000000000_SAS093201984050e0|15=CNY|21=1|22=5|38=500|40=2|44=10.4500|48=002126.SZ|50=CICC2|54=1|55=002126.SZ|57=SWAP|59=0|60=20210813-01:32:07|100=SZ|120=USD|207=SZ|10=152|
20210813-01:32:07.905541000 : 8=FIX.4.2|9=232|35=D|34=805|49=SenderCompID|52=20210813-01:32:07.905|56=TargetCompID|1=CICC2|11=130000000000_SAS093201929396e0|15=CNY|21=1|22=5|38=2800|40=2|44=15.0600|48=002213.SZ|50=CICC2|54=1|55=002213.SZ|57=SWAP|59=0|60=20210813-01:32:07|100=SZ|120=USD|207=SZ|10=215|
20210813-01:32:07.925557000 : 8=FIX.4.2|9=232|35=D|34=806|49=SenderCompID|52=20210813-01:32:07.925|56=TargetCompID|1=CICC2|11=130000000000_SAS093201924397e0|15=CNY|21=1|22=5|38=3400|40=2|44=13.0800|48=000625.SZ|50=CICC2|54=1|55=000625.SZ|57=SWAP|59=0|60=20210813-01:32:07|100=SZ|120=USD|207=SZ|10=221|
20210813-01:32:08.270422000 : 8=FIX.4.2|9=232|35=D|34=807|49=SenderCompID|52=20210813-01:32:08.270|56=TargetCompID|1=CICC2|11=130000000000_SAS093201989099e0|15=CNY|21=1|22=5|38=52300|40=2|44=5.9100|48=300510.SZ|50=CICC2|54=2|55=300510.SZ|57=SWAP|59=0|60=20210813-01:32:08|100=SZ|120=USD|207=SZ|10=223|
20210813-01:32:08.286779000 : 8=FIX.4.2|9=231|35=D|34=808|49=SenderCompID|52=20210813-01:32:08.286|56=TargetCompID|1=CICC2|11=130000000000_SAS093201989100e0|15=CNY|21=1|22=5|38=500|40=2|44=34.2500|48=300655.SZ|50=CICC2|54=1|55=300655.SZ|57=SWAP|59=0|60=20210813-01:32:08|100=SZ|120=USD|207=SZ|10=182|
20210813-01:32:08.431038000 : 8=FIX.4.2|9=231|35=D|34=809|49=SenderCompID|52=20210813-01:32:08.430|56=TargetCompID|1=CICC2|11=130000000000_HAS093201929445e0|15=CNY|21=1|22=5|38=500|40=2|44=13.9000|48=600458.SS|50=CICC2|54=1|55=600458.SS|57=SWAP|59=0|60=20210813-01:32:08|100=SS|120=USD|207=SS|10=136|
20210813-01:32:08.445784000 : 8=FIX.4.2|9=232|35=D|34=810|49=SenderCompID|52=20210813-01:32:08.445|56=TargetCompID|1=CICC2|11=130000000000_SAS093202035844e0|15=CNY|21=1|22=5|38=1100|40=2|44=30.6100|48=300639.SZ|50=CICC2|54=1|55=300639.SZ|57=SWAP|59=0|60=20210813-01:32:08|100=SZ|120=USD|207=SZ|10=213|
20210813-01:32:08.537320000 : 8=FIX.4.2|9=224|35=F|34=811|49=SenderCompID|52=20210813-01:32:08.537|56=TargetCompID|1=CICC2|11=130801080041_SAS093101953179e0|22=5|38=200|41=130000000000_SAS093101953179e0|48=002816.SZ|50=CICC2|54=1|55=002816.SZ|60=20210813-01:32:08|100=SZ|120=USD|207=SZ|10=199|
20210813-01:32:09.727827000 : 8=FIX.4.2|9=232|35=D|34=812|49=SenderCompID|52=20210813-01:32:09.727|56=TargetCompID|1=CICC2|11=130000000000_SAS093201994133e0|15=CNY|21=1|22=5|38=2800|40=2|44=13.0800|48=000625.SZ|50=CICC2|54=1|55=000625.SZ|57=SWAP|59=0|60=20210813-01:32:09|100=SZ|120=USD|207=SZ|10=219|
20210813-01:32:09.864882000 : 8=FIX.4.2|9=232|35=D|34=813|49=SenderCompID|52=20210813-01:32:09.864|56=TargetCompID|1=CICC2|11=130000000000_SAS093201954324e0|15=CNY|21=1|22=5|38=1300|40=2|44=10.4500|48=002126.SZ|50=CICC2|54=1|55=002126.SZ|57=SWAP|59=0|60=20210813-01:32:09|100=SZ|120=USD|207=SZ|10=204|
20210813-01:32:09.899467000 : 8=FIX.4.2|9=231|35=D|34=814|49=SenderCompID|52=20210813-01:32:09.899|56=TargetCompID|1=CICC2|11=130000000000_SAS093202035993e0|15=CNY|21=1|22=5|38=900|40=2|44=15.0600|48=002213.SZ|50=CICC2|54=1|55=002213.SZ|57=SWAP|59=0|60=20210813-01:32:09|100=SZ|120=USD|207=SZ|10=173|
20210813-01:32:09.925650000 : 8=FIX.4.2|9=231|35=D|34=815|49=SenderCompID|52=20210813-01:32:09.925|56=TargetCompID|1=CICC2|11=130000000000_SAS093201929596e0|15=CNY|21=1|22=5|38=700|40=2|44=12.5900|48=002286.SZ|50=CICC2|54=1|55=002286.SZ|57=SWAP|59=0|60=20210813-01:32:09|100=SZ|120=USD|207=SZ|10=183|
20210813-01:32:10.436967000 : 8=FIX.4.2|9=231|35=D|34=816|49=SenderCompID|52=20210813-01:32:10.436|56=TargetCompID|1=CICC2|11=130000000000_SAS093201954395e0|15=CNY|21=1|22=5|38=11400|40=2|44=5.9100|48=300510.SZ|50=CICC2|54=2|55=300510.SZ|57=SWAP|59=0|60=20210813-01:32:10|100=SZ|120=USD|207=SZ|10=150|
20210813-01:32:10.455891000 : 8=FIX.4.2|9=225|35=F|34=817|49=SenderCompID|52=20210813-01:32:10.455|56=TargetCompID|1=CICC2|11=130801080042_SAS093201928650e0|22=5|38=1300|41=130000000000_SAS093201928650e0|48=002213.SZ|50=CICC2|54=1|55=002213.SZ|60=20210813-01:32:10|100=SZ|120=USD|207=SZ|10=218|
20210813-01:32:10.456640000 : 8=FIX.4.2|9=225|35=F|34=818|49=SenderCompID|52=20210813-01:32:10.456|56=TargetCompID|1=CICC2|11=130801080043_SAS093202035383e0|22=5|38=6600|41=130000000000_SAS093202035383e0|48=002213.SZ|50=CICC2|54=1|55=002213.SZ|60=20210813-01:32:10|100=SZ|120=USD|207=SZ|10=215|
20210813-01:32:10.491104000 : 8=FIX.4.2|9=230|35=D|34=819|49=SenderCompID|52=20210813-01:32:10.491|56=TargetCompID|1=CICC2|11=130000000000_SAS093202036073e0|15=CNY|21=1|22=5|38=500|40=2|44=34.2500|48=300655.SZ|50=CICC2|54=1|55=300655.SZ|57=SWAP|59=0|60=20210813-01:32:10|100=SZ|120=USD|207=SZ|10=105|
20210813-01:32:10.494440000 : 8=FIX.4.2|9=230|35=D|34=820|49=SenderCompID|52=20210813-01:32:10.494|56=TargetCompID|1=CICC2|11=130000000000_SAS093201984333e0|15=CNY|21=1|22=5|38=300|40=2|44=30.6100|48=300639.SZ|50=CICC2|54=1|55=300639.SZ|57=SWAP|59=0|60=20210813-01:32:10|100=SZ|120=USD|207=SZ|10=106|
20210813-01:32:11.024972000 : 8=FIX.4.2|9=231|35=D|34=821|49=SenderCompID|52=20210813-01:32:11.024|56=TargetCompID|1=CICC2|11=130000000000_HAS093201924725e0|15=CNY|21=1|22=5|38=400|40=2|44=13.9000|48=600458.SS|50=CICC2|54=1|55=600458.SS|57=SWAP|59=0|60=20210813-01:32:11|100=SS|120=USD|207=SS|10=111|
20210813-01:32:12.707494000 : 8=FIX.4.2|9=232|35=D|34=823|49=SenderCompID|52=20210813-01:32:12.707|56=TargetCompID|1=CICC2|11=130000000000_SAS093201989526e0|15=CNY|21=1|22=5|38=3600|40=2|44=13.0800|48=000625.SZ|50=CICC2|54=1|55=000625.SZ|57=SWAP|59=0|60=20210813-01:32:12|100=SZ|120=USD|207=SZ|10=214|
20210813-01:32:12.869868000 : 8=FIX.4.2|9=231|35=D|34=824|49=SenderCompID|52=20210813-01:32:12.869|56=TargetCompID|1=CICC2|11=130000000000_SAS093201984531e0|15=CNY|21=1|22=5|38=400|40=2|44=10.4500|48=002126.SZ|50=CICC2|54=1|55=002126.SZ|57=SWAP|59=0|60=20210813-01:32:12|100=SZ|120=USD|207=SZ|10=154|
20210813-01:32:12.909293000 : 8=FIX.4.2|9=232|35=D|34=825|49=SenderCompID|52=20210813-01:32:12.909|56=TargetCompID|1=CICC2|11=130000000000_SAS093201924878e0|15=CNY|21=1|22=5|38=9900|40=2|44=15.0600|48=002213.SZ|50=CICC2|54=1|55=002213.SZ|57=SWAP|59=0|60=20210813-01:32:12|100=SZ|120=USD|207=SZ|10=222|
20210813-01:32:12.940933000 : 8=FIX.4.2|9=231|35=D|34=826|49=SenderCompID|52=20210813-01:32:12.940|56=TargetCompID|1=CICC2|11=130000000000_SAS093201929872e0|15=CNY|21=1|22=5|38=500|40=2|44=12.5900|48=002286.SZ|50=CICC2|54=1|55=002286.SZ|57=SWAP|59=0|60=20210813-01:32:12|100=SZ|120=USD|207=SZ|10=161|
20210813-01:32:13.042426000 : 8=FIX.4.2|9=231|35=D|34=827|49=SenderCompID|52=20210813-01:32:13.042|56=TargetCompID|1=CICC2|11=130000000000_SAS093201954617e0|15=CNY|21=1|22=5|38=400|40=2|44=20.2800|48=002816.SZ|50=CICC2|54=1|55=002816.SZ|57=SWAP|59=0|60=20210813-01:32:13|100=SZ|120=USD|207=SZ|10=160|
20210813-01:32:13.421182000 : 8=FIX.4.2|9=232|35=D|34=828|49=SenderCompID|52=20210813-01:32:13.421|56=TargetCompID|1=CICC2|11=130000000000_SAS093201989601e0|15=CNY|21=1|22=5|38=32600|40=2|44=5.9100|48=300510.SZ|50=CICC2|54=2|55=300510.SZ|57=SWAP|59=0|60=20210813-01:32:13|100=SZ|120=USD|207=SZ|10=212|
20210813-01:32:13.466068000 : 8=FIX.4.2|9=231|35=D|34=829|49=SenderCompID|52=20210813-01:32:13.466|56=TargetCompID|1=CICC2|11=130000000000_SAS093202036337e0|15=CNY|21=1|22=5|38=700|40=2|44=34.2500|48=300655.SZ|50=CICC2|54=1|55=300655.SZ|57=SWAP|59=0|60=20210813-01:32:13|100=SZ|120=USD|207=SZ|10=174|
20210813-01:32:13.479392000 : 8=FIX.4.2|9=232|35=D|34=830|49=SenderCompID|52=20210813-01:32:13.479|56=TargetCompID|1=CICC2|11=130000000000_SAS093201929937e0|15=CNY|21=1|22=5|38=1300|40=2|44=30.6100|48=300639.SZ|50=CICC2|54=1|55=300639.SZ|57=SWAP|59=0|60=20210813-01:32:13|100=SZ|120=USD|207=SZ|10=226|
20210813-01:32:14.094522000 : 8=FIX.4.2|9=231|35=D|34=831|49=SenderCompID|52=20210813-01:32:14.094|56=TargetCompID|1=CICC2|11=130000000000_HAS093201954705e0|15=CNY|21=1|22=5|38=900|40=2|44=13.9000|48=600458.SS|50=CICC2|54=1|55=600458.SS|57=SWAP|59=0|60=20210813-01:32:14|100=SS|120=USD|207=SS|10=130|
20210813-01:32:15.453950000 : 8=FIX.4.2|9=224|35=F|34=832|49=SenderCompID|52=20210813-01:32:15.453|56=TargetCompID|1=CICC2|11=130801080044_SAS093202035993e0|22=5|38=900|41=130000000000_SAS093202035993e0|48=002213.SZ|50=CICC2|54=1|55=002213.SZ|60=20210813-01:32:15|100=SZ|120=USD|207=SZ|10=181|
20210813-01:32:15.456672000 : 8=FIX.4.2|9=225|35=F|34=833|49=SenderCompID|52=20210813-01:32:15.456|56=TargetCompID|1=CICC2|11=130801080045_SAS093201929396e0|22=5|38=2800|41=130000000000_SAS093201929396e0|48=002213.SZ|50=CICC2|54=1|55=002213.SZ|60=20210813-01:32:15|100=SZ|120=USD|207=SZ|10=252|
20210813-01:32:15.712892000 : 8=FIX.4.2|9=232|35=D|34=834|49=SenderCompID|52=20210813-01:32:15.712|56=TargetCompID|1=CICC2|11=130000000000_SAS093202100093e0|15=CNY|21=1|22=5|38=9600|40=2|44=13.0800|48=000625.SZ|50=CICC2|54=1|55=000625.SZ|57=SWAP|59=0|60=20210813-01:32:15|100=SZ|120=USD|207=SZ|10=201|
20210813-01:32:15.951133000 : 8=FIX.4.2|9=232|35=D|34=835|49=SenderCompID|52=20210813-01:32:15.951|56=TargetCompID|1=CICC2|11=130000000000_SAS093201954840e0|15=CNY|21=1|22=5|38=4800|40=2|44=15.0600|48=002213.SZ|50=CICC2|54=1|55=002213.SZ|57=SWAP|59=0|60=20210813-01:32:15|100=SZ|120=USD|207=SZ|10=212|
20210813-01:32:15.969232000 : 8=FIX.4.2|9=232|35=D|34=836|49=SenderCompID|52=20210813-01:32:15.969|56=TargetCompID|1=CICC2|11=130000000000_SAS093201954841e0|15=CNY|21=1|22=5|38=1900|40=2|44=10.4500|48=002126.SZ|50=CICC2|54=1|55=002126.SZ|57=SWAP|59=0|60=20210813-01:32:15|100=SZ|120=USD|207=SZ|10=218|
20210813-01:32:16.410583000 : 8=FIX.4.2|9=232|35=D|34=837|49=SenderCompID|52=20210813-01:32:16.410|56=TargetCompID|1=CICC2|11=130000000000_SAS093201989826e0|15=CNY|21=1|22=5|38=31300|40=2|44=5.9100|48=300510.SZ|50=CICC2|54=2|55=300510.SZ|57=SWAP|59=0|60=20210813-01:32:16|100=SZ|120=USD|207=SZ|10=221|
20210813-01:32:16.472488000 : 8=FIX.4.2|9=231|35=D|34=838|49=SenderCompID|52=20210813-01:32:16.472|56=TargetCompID|1=CICC2|11=130000000000_SAS093201984832e0|15=CNY|21=1|22=5|38=500|40=2|44=30.6100|48=300639.SZ|50=CICC2|54=1|55=300639.SZ|57=SWAP|59=0|60=20210813-01:32:16|100=SZ|120=USD|207=SZ|10=180|
20210813-01:32:16.476652000 : 8=FIX.4.2|9=230|35=D|34=839|49=SenderCompID|52=20210813-01:32:16.476|56=TargetCompID|1=CICC2|11=130000000000_SAS093201994722e0|15=CNY|21=1|22=5|38=600|40=2|44=34.2500|48=300655.SZ|50=CICC2|54=1|55=300655.SZ|57=SWAP|59=0|60=20210813-01:32:16|100=SZ|120=USD|207=SZ|10=135|
20210813-01:32:16.939609000 : 8=FIX.4.2|9=231|35=D|34=840|49=SenderCompID|52=20210813-01:32:16.939|56=TargetCompID|1=CICC2|11=130000000000_HAS093201984858e0|15=CNY|21=1|22=5|38=500|40=2|44=13.9000|48=600458.SS|50=CICC2|54=1|55=600458.SS|57=SWAP|59=0|60=20210813-01:32:16|100=SS|120=USD|207=SS|10=150|
20210813-01:32:18.684397000 : 8=FIX.4.2|9=232|35=D|34=841|49=SenderCompID|52=20210813-01:32:18.684|56=TargetCompID|1=CICC2|11=130000000000_SAS093202100305e0|15=CNY|21=1|22=5|38=4500|40=2|44=13.0800|48=000625.SZ|50=CICC2|54=1|55=000625.SZ|57=SWAP|59=0|60=20210813-01:32:18|100=SZ|120=USD|207=SZ|10=200|
20210813-01:32:18.871204000 : 8=FIX.4.2|9=231|35=D|34=842|49=SenderCompID|52=20210813-01:32:18.871|56=TargetCompID|1=CICC2|11=130000000000_SAS093202105321e0|15=CNY|21=1|22=5|38=300|40=2|44=10.4500|48=002126.SZ|50=CICC2|54=1|55=002126.SZ|57=SWAP|59=0|60=20210813-01:32:18|100=SZ|120=USD|207=SZ|10=141|
20210813-01:32:18.899404000 : 8=FIX.4.2|9=231|35=D|34=843|49=SenderCompID|52=20210813-01:32:18.899|56=TargetCompID|1=CICC2|11=130000000000_SAS093202036738e0|15=CNY|21=1|22=5|38=4300|40=2|44=15.0600|48=002213.SZ|50=CICC2|54=1|55=002213.SZ|57=SWAP|59=0|60=20210813-01:32:18|100=SZ|120=USD|207=SZ|10=164|
20210813-01:32:18.908264000 : 8=FIX.4.2|9=232|35=D|34=844|49=SenderCompID|52=20210813-01:32:18.908|56=TargetCompID|1=CICC2|11=130000000000_SAS093202120060e0|15=CNY|21=1|22=5|38=1400|40=2|44=12.5900|48=002286.SZ|50=CICC2|54=1|55=002286.SZ|57=SWAP|59=0|60=20210813-01:32:18|100=SZ|120=USD|207=SZ|10=198|
20210813-01:32:19.461003000 : 8=FIX.4.2|9=232|35=D|34=845|49=SenderCompID|52=20210813-01:32:19.460|56=TargetCompID|1=CICC2|11=130000000000_SAS093202036798e0|15=CNY|21=1|22=5|38=11900|40=2|44=5.9100|48=300510.SZ|50=CICC2|54=2|55=300510.SZ|57=SWAP|59=0|60=20210813-01:32:19|100=SZ|120=USD|207=SZ|10=222|
20210813-01:32:19.467602000 : 8=FIX.4.2|9=231|35=D|34=846|49=SenderCompID|52=20210813-01:32:19.467|56=TargetCompID|1=CICC2|11=130000000000_SAS093202105390e0|15=CNY|21=1|22=5|38=400|40=2|44=34.2500|48=300655.SZ|50=CICC2|54=1|55=300655.SZ|57=SWAP|59=0|60=20210813-01:32:19|100=SZ|120=USD|207=SZ|10=178|
20210813-01:32:19.477517000 : 8=FIX.4.2|9=232|35=D|34=847|49=SenderCompID|52=20210813-01:32:19.477|56=TargetCompID|1=CICC2|11=130000000000_SAS093202036801e0|15=CNY|21=1|22=5|38=1200|40=2|44=30.6100|48=300639.SZ|50=CICC2|54=1|55=300639.SZ|57=SWAP|59=0|60=20210813-01:32:19|100=SZ|120=USD|207=SZ|10=222|
20210813-01:32:19.997059000 : 8=FIX.4.2|9=231|35=D|34=849|49=SenderCompID|52=20210813-01:32:19.996|56=TargetCompID|1=CICC2|11=130000000000_HAS093202100428e0|15=CNY|21=1|22=5|38=700|40=2|44=13.9000|48=600458.SS|50=CICC2|54=1|55=600458.SS|57=SWAP|59=0|60=20210813-01:32:19|100=SS|120=USD|207=SS|10=144|
20210813-01:32:20.436321000 : 8=FIX.4.2|9=225|35=F|34=850|49=SenderCompID|52=20210813-01:32:20.436|56=TargetCompID|1=CICC2|11=130801080046_SAS093201924878e0|22=5|38=9900|41=130000000000_SAS093201924878e0|48=002213.SZ|50=CICC2|54=1|55=002213.SZ|60=20210813-01:32:20|100=SZ|120=USD|207=SZ|10=250|
20210813-01:32:20.442464000 : 8=FIX.4.2|9=225|35=F|34=851|49=SenderCompID|52=20210813-01:32:20.442|56=TargetCompID|1=CICC2|11=130801080047_SAS093201954840e0|22=5|38=4800|41=130000000000_SAS093201954840e0|48=002213.SZ|50=CICC2|54=1|55=002213.SZ|60=20210813-01:32:20|100=SZ|120=USD|207=SZ|10=227|
20210813-01:32:21.692794000 : 8=FIX.4.2|9=233|35=D|34=852|49=SenderCompID|52=20210813-01:32:21.692|56=TargetCompID|1=CICC2|11=130000000000_SAS093202140093e0|15=CNY|21=1|22=5|38=13600|40=2|44=13.0800|48=000625.SZ|50=CICC2|54=1|55=000625.SZ|57=SWAP|59=0|60=20210813-01:32:21|100=SZ|120=USD|207=SZ|10=250|
20210813-01:32:21.874418000 : 8=FIX.4.2|9=232|35=D|34=853|49=SenderCompID|52=20210813-01:32:21.874|56=TargetCompID|1=CICC2|11=130000000000_SAS093202130225e0|15=CNY|21=1|22=5|38=10800|40=2|44=15.0600|48=002213.SZ|50=CICC2|54=1|55=002213.SZ|57=SWAP|59=0|60=20210813-01:32:21|100=SZ|120=USD|207=SZ|10=183|
20210813-01:32:21.956341000 : 8=FIX.4.2|9=232|35=D|34=854|49=SenderCompID|52=20210813-01:32:21.956|56=TargetCompID|1=CICC2|11=130000000000_SAS093202120299e0|15=CNY|21=1|22=5|38=1300|40=2|44=12.5900|48=002286.SZ|50=CICC2|54=1|55=002286.SZ|57=SWAP|59=0|60=20210813-01:32:21|100=SZ|120=USD|207=SZ|10=207|
20210813-01:32:22.137556000 : 8=FIX.4.2|9=230|35=D|34=855|49=SenderCompID|52=20210813-01:32:22.137|56=TargetCompID|1=CICC2|11=130000000000_SAS093202036994e0|15=CNY|21=1|22=5|38=200|40=2|44=20.2800|48=002816.SZ|50=CICC2|54=1|55=002816.SZ|57=SWAP|59=0|60=20210813-01:32:22|100=SZ|120=USD|207=SZ|10=114|
